:040000006F20806B82
:10000400000000000000000090000020B604002062
:10001400A9BDF9F5940000200000000000000000D4
:10002400960000209800002000000000000000005E
:100034009A000020000000009C0000200000000046
:100044009E000020A0000020D0050020A400002075
:10005400A6000020A8000020AA000020AC00002078
:10006400AE000020B0000020B2000020C005002037
:1000740098050020B8000020F0050020BC000020F6
:10008400BE000020C0000020C2000020C4000020E8
:1000940001A001A001A001A001A001A001A001A054
:1000A40001A001A001A001A001A001A001A001A044
:1000B40001A001A001A001A001A001A001A001A034
:1000C40001A001A001A0797122D60018232EA4FC5E
:1000D400B717004093870704130770052380E700D0
:1000E400B717004093870704130780FA2380E700BB
:1000F40001000100B71700409387B70483C70700C6
:1001040013F7F70FB71700409387B7041377F7FD7A
:100114001377F70F2380E700B7170040938707048E
:10012400238007008327C4FD93F707026387071022
:10013400B7170040A90783C7070093F7F70F918B00
:10014400BDE3B717004093870704130770052380A6
:10015400E700B717004093870704130780FA23804A
:10016400E70001000100B7170040A90783C7070093
:1001740013F7F70FB7170040A90713674700137762
:10018400F70F2380E700232604FE01A801000100E5
:100194008327C4FE85072326F4FE0327C4FE9307A2
:1001A400F04AE3F5E7FEB717004093870704130707
:1001B40070052380E700B7170040938707041307EF
:1001C40080FA2380E700010001008327C4FD139710
:1001D40007014183B7170040A1077D8B4207418384
:1001E4002390E7000100010001000100B71700405F
:1001F4009387070423800700B717004093870704F9
:10020400130770052380E700B7170040938707049E
:10021400130780FA2380E70001000100B72700409C
:1002240093877780130710052380E700B7170040F2
:1002340093870704238007004DAA8327C4FD93F7FF
:10024400070463810716B7170040A90783C707008F
:1002540093F7F70FC18BBDE3B717004093870704EB
:10026400130770052380E700B7170040938707043E
:10027400130780FA2380E70001000100B71700404C
:10028400A90783C7070013F7F70FB7170040A9079B
:10029400136707011377F70F2380E700232604FE73
:1002A40001A8010001008327C4FE85072326F4FE6C
:1002B4000327C4FE9307F07CE3F5E7FEB71700407D
:1002C40093870704130770052380E700B7170040DE
:1002D40093870704130780FA2380E70001000100D5
:1002E4008327C4FDC207C183FD8B13970701418394
:1002F400B7170040A10713670704420741832390FF
:10030400E7000100010001000100B71700409387D6
:100314000704238007000327C4FD930760046312C6
:10032400F704B71700409387070413077005238069
:10033400E700B717004093870704130780FA238068
:10034400E70001000100B727004093877780094741
:100354002380E700B7170040938707042380070032
:1003640069A0B7170040938707041307700523801B
:10037400E700B717004093870704130780FA238028
:10038400E70001000100B727004093877780130737
:1003940020052380E700B7170040938707042380D4
:1003A4000700A1A0B717004093870704130770053F
:1003B4002380E700B717004093870704130780FAE8
:1003C4002380E70001000100B7170040A10783D78D
:1003D4000700139707014183B7170040A10713676C
:1003E400070C420741832390E700B7170040938727
:1003F4000704130770052380E700B71700409387AD
:100404000704130780FA2380E70001000100B717EF
:1004140000409387B70483C7070013F7F70FB71794
:1004240000409387B704136707F81377F70F238007
:10043400E700B717004093870704238007000100F3
:10044400325445618280411106C622C400088146A7
:10045400014681451145BD25B71700409387070420
:10046400130770052380E700B7170040938707043C
:10047400130780FA2380E70001000100B71700404A
:100484009387670483C7070013F7F70FB717004074
:1004940093876704136717001377F70F2380E70028
:1004A400B717004093870704238007000100B24078
:1004B400224441018280411122C60008814601463E
:1004C400814511450125B717004093870704130799
:1004D40070052380E700B7170040938707041307CC
:1004E40080FA2380E70001000100B71700409387DA
:1004F400C7027D572390E700B7170040938767042E
:1005040083C7070013F7F70FB717004093876704F3
:10051400136717001377F70F2380E700B71700401E
:10052400938707042380070001A0797122D600185D
:10053400AA87231FF4FC0357E4FDBA879207998F17
:100544002326F4FE01008327C4FEFD172326F4FEB0
:100554008327C4FEE5FB0100325445618280797132
:1005640006D622D40018AA87231FF4FC231704FEFE
:1005740009A81305803E553F8357E4FE85072317DA
:10058400F4FE0357E4FE8357E4FDE364F7FE010041
:10059400B250225445618280411122C60008B71727
:1005A400004093870703130700032380E700938722
:1005B40001BF054798C30100324441017300203054
:1005C400411122C600080100324441017300203069
:1005D400411122C60008B71700409387E7091307A3
:1005E40000102390E70001003244410173002030E1
:1005F400011122CE26CC0010973000E0E780207B4A
:100604002326A4FE0327C4FEC167F98F638D073038
:100614008327C4FE858B81CF9387318C83C70700E2
:1006240093F7F70F3E85973000E0E780805F03275C
:10063400C4FEB7070400F98F638107100327C4FEC3
:10064400B707040093876708F98FDDCB9387618C24
:1006540083C7070013F7F70F9387718C83C70700CD
:10066400637CF7029387618C83C7070093F7F70FC6
:10067400138717009376F70F1387618C2300D70035
:100684003E879387C1A8BA9783C707003E859730F2
:1006940000E0E7800059ADA09387418C83C7070031
:1006A40093F7F70F99CB9387218C23800700054597
:1006B400973000E0E7800042A1A09387518C054762
:1006C4002380E700814513050040973000E0E78070
:1006D400204D814513050020973000E0E780404C11
:1006E400814513050010973000E0E780604B054515
:1006F400973000E0E780A0379387218C23800700A0
:100704008327C4FE93F70740638F0720B7070010C1
:1007140013850740973000E0E78040789387918CF9
:100724000D472380E7009387218C2380070005452C
:10073400973000E0E780003AFDA28327C4FE898B4E
:1007440095CF9387618C83C7070093F7F70F8507CD
:100754001387718C0347070063D8E700054597307A
:1007640000E0E780803D19A80145973000E0E7806C
:10077400C03C9387818C05472380E7008327C4FE10
:1007840093F707046386070E9387618C83C707007A
:1007940093F7F70F138717009376F70F1387618C7E
:1007A4002300D700BE84973000E0E780004AAA8780
:1007B4003E879387C1A8A6972380E7009387618C1F
:1007C40083C7070013F7F70F9387718C83C707005C
:1007D4006378F7000545973000E0E780003649A8C4
:1007E4000145973000E0E78040359387818C83C7CB
:1007F4000700B5CB9387818C238007009387418CB6
:1008040083C7070093F7F70F99CB0545973000E0AE
:10081400E780402C9387218C2380070091A893873D
:10082400518C05472380E70081451305004097302C
:1008340000E0E780E036814513050020973000E0B2
:10084400E7800036814513050010973000E0E7800B
:1008540020350545973000E0E78060219387218C9F
:100864002380070031A09387818C05472380E7000C
:100874008327C4FE93F70740DDC7B707001013852D
:100884000740973000E0E78060619387618C83C7FD
:10089400070093F7F70F138717009376F70F138763
:1008A400618C2300D700BE84973000E0E780E039F4
:1008B400AA873E879387C1A8A6972380E7009387DA
:1008C400418C83C7070093F7F70F99CB9387218C4B
:1008D400238007000545973000E0E780A01FA1A012
:1008E4009387518C05472380E70081451305004019
:1008F400973000E0E780C02A814513050020973037
:1009040000E0E780E029814513050010973000E0FE
:10091400E78000290545973000E0E780401593877C
:10092400218C238007008327C4FE93F707108DC30F
:1009340013050010973000E0E780405605459730D6
:1009440000E0E78020199387918C15472380E70006
:100954008327C4FE93F7072081CF13050020973027
:1009640000E0E780A0539387918C11472380E70030
:100974000327C4FE856793870780F98F89CF85672E
:1009840013850780973000E0E78040519387918C6E
:1009940019472380E7000327C4FE8567F98F99CBA5
:1009A4000565973000E0E780604F9387918C1D4781
:1009B4002380E7000327C4FE9167F98F99CB116563
:1009C400973000E0E780804D9387918C2147238006
:1009D400E7000327C4FEA167F98F99CB21659730FF
:1009E40000E0E780A04B9387918C25472380E700A4
:1009F40001007244E244056173002030411106C6CF
:100A040022C40008852DFDBF23030480154723035A
:100A1400E48001002302A480828083076480E3CE03
:100A240007FE23030480828083076480E3CE07FEED
:100A340003454480828083076480E3CE07FE23025B
:100A4400A4808280411126C44AC24EC006C61377D0
:100A5400F50BAD47AA892E8995446306F70019451D
:100A64006537653F8D444E854537FD59FD146398C0
:100A74003401B240A2441249824941018280135593
:100A840009011375F50F453F2209CDB7011126CC95
:100A940006CEB704080051371545BD37713769379D
:100AA4002AC6A53F32459377150089EB13651500D7
:100AB4001375F50FF240E24405618280FD14E9FCF0
:100AC4000145CDBF397126DC4ADA4ED852D656D408
:100AD4005AD25ED006DE62CE66CCB7E700E07D5720
:100AE40083AA070022C603AA470023A0E71823A26B
:100AF400E718B7170040130770052380E7041307AE
:100B040080FA2380E70483C74704930B75FFB684F8
:100B1400E20793FBFB0F8546AA892E8B3289372483
:100B24000040E187015763FA76016308D5008946DE
:100B3400130700026313D5000157D98F93F7F70FFA
:100B4400B71C00402382FC0411472303E4801305EF
:100B5400F00F5D3D094CD135636D7C11B70507007D
:100B6400DA9537870700795563F2E504B387950072
:100B7400636EF702370B0800A94733EB65016399ED
:100B8400F90689E48144513D26850DA0DA8509459D
:100B9400553D05090345F9FFFD14050B693D81C465
:100BA4009377FB0FFDF7DD3569FD7D55B7170040E1
:100BB400130770052380E704130780FA2380E704F2
:100BC40003C74704418B2382E704F250B7E700E0F0
:100BD40023A0571123A24711E25432445259C25957
:100BE400325AA25A125B825B724CE24C21618280BF
:100BF400A5476395F90685691309F00FB3069900B3
:100C0400B3742B01B6941349F9FFB3749900856B3F
:100C140033796901416B9387F9FFB3F7270199E3AE
:100C240063FC340193D94900C147E3E637FF99BF18
:100C34000569C1697D19D9B71305800D63886901F8
:100C4400130500026384790113051008CA85DD3B8E
:100C5400353D21DD4E99B3843441D9B7DA852D452C
:100C6400D533CA94E30099F205097D3BA30FA9FE8D
:100C7400D5BF9387F9FF93F7F70F6361FC0C83C724
:100C84001C0413073008631FF70437070800636B5D
:100C9400EB04B3079B00B706100063F5D704334B8E
:100CA400EB0089476393F9068980D549E38C04EC0A
:100CB400DA850945413B11090327C9FF91472320E0
:100CC400E48003076480E34E07FE23033481FD17A9
:100CD400EDFBFD14110B81C49377FB0FE9FF7D330A
:100CE40071F5E1B5B717004003C75704B70708000B
:100CF4001377070219E3B78707007955E378FBEA0E
:100D040033079B00E3FFE7F855B58547E382F9F223
:100D1400DA852D45053B9389F4FFE38504E6293301
:100D240093F7390091EB8326048003270900930786
:100D34004900E39AE6E43E89CE84F1BFB547639661
:100D4400F9001305900BC93135BDB1471305B00A3D
:100D5400E38BF9FE99476391F904B7050800B3657D
:100D6400BB002D45C53181448D4BA149753963962E
:100D74007401832704802320F9008504E39834FF59
:100D84008327048013172B01635507002312F900EE
:100D9400D5BB2322F900FDB39D476399F902814530
:100DA4001305B0044531BD44232009002322090062
:100DB400FD599D3993F77400CA9703C70700FD14C2
:100DC400398D2380A700E39634FF6DBBA14763925E
:100DD400F9046D398144630D0B008D479304C003FE
:100DE4006308FB009304000563048B01930440042F
:100DF4001375C507E30895D81945393139390545BF
:100E0400213126850D3909453D314931E31C05D68B
:100E140069BB91476399F90013056006F536F53E01
:100E2400130590090DB7E38F09D4F154A9BB19CD6B
:100E340091CD09CE81473387F500834607003307F8
:100E4400F50085072300D700E397C7FE828019C900
:100E540091C909CA910583A7C5FF11057D16232EE3
:100E6400F5FEC5BF828001C919C62A960505A30FE0
:100E7400B5FEE31DA6FE828081473307F500030714
:100E8400070019E33E8582808507C5BF01112E86C0
:100E940026CAAA84131506019305F004418122CCC5
:100EA40006CE32C6EF10A0572A8401C53246A68565
:100EB400BD3F2285F2406244D24405618280854769
:100EC40015C18DC105C28147B306F5003387F5000E
:100ED40083C60600034707006398E6008507E31509
:100EE400F6FE85473E8582808147EDBF9307F6FF76
:100EF400BE952A966313C5008280FD1583C715002D
:100F04000505A30FF5FEFDB7AA87014581CF09CEDC
:100F14003E96850703C7F7FF6317B700E31BF6FE8A
:100F2400054582808280014582807971974700005F
:100F3400938787AA22D4804306D626D24AD04ECE9F
:100F440052CC56CA5AC85EC662C45DCC37C9C90100
:100F5400814B174A0000130AAAAC974400009384FB
:100F6400E4A71309F937974A0000938AAAA1B7099D
:100F7400C0A8370B40578357240095E35C44639D16
:100F84000B00174700002329F7A4032CC400228573
:100F9400EF100056628499A823A6FB00FDB78327AF
:100FA4000A008297838664011C4463DB06063307C8
:100FB400F5406367E9089747000023AD079C835514
:100FC40024000345040097A000E0E780204C5C4027
:100FD4005844A9CF1444B6978386640163C50600B8
:100FE40063E33701DA971CC4A28B3A8449F4974728
:100FF4000000938727999C4B09476378F706F917F4
:10100400174700002328F798B250225492540259EB
:10101400F249624AD24A424BB24B224C4561828029
:10102400E377F5F83387F9402A9761B763970B00A4
:101034009747000023A2E79A89BF23A6EB00B1B724
:10104400D85009CF63DF06003385A74083A70A0180
:101054006376F5009747000023AEA792A28B404425
:1010640071B7E3F3A7FECE97C5B79747000023A354
:10107400079259BF411122C41744000013048493FA
:101084001C4006C626C24AC091C7829797470000F3
:1010940023A207925C4091C382971C406391071C72
:1010A4009747000083C717AD858B9DC797470000FE
:1010B400A38207AC174700000347F7AB914763FDD2
:1010C400E700EF00B0359747000083C7D7AAF917A8
:1010D4008A07A2979C43829717490000130949ADD8
:1010E4008347C900918B99C3EF10C0261C4491C358
:1010F4008297974400009384E48D9840174600003B
:10110400034656889747000083C7C78793961700FE
:10111400BA9683D60600D5CA9747000083C7878648
:1011240063EFC70A97470000238E07841C40639827
:1011340007129747000083C737A491CF9747000051
:1011440083C777A389EB97470000A38707A297F08B
:1011540001E0E7804094974700009387678C9C43A5
:10116400638F070EB707C0A8174700002324F78230
:101174006D3B9747000093876786DC53EDC31747A1
:10118400000013072780184B9747000083C7578632
:101194006367F70C174700000347F79D914763E027
:1011A400E70C8347C900918BDDEB90409736000034
:1011B40083C6567D63CBD70A2244B2409244024987
:1011C400410117A300E067008309850793F7F70F30
:1011D400973600002388F67AE3E6C7F235BF860720
:1011E4003E9783550700231007009737000023918B
:1011F400077E973700009387A77B9C431735000031
:101204000345457813172500BA979C43829797376F
:10121400000083D7E77B173700000347A77693C7FF
:10122400F7FF7D8D9317170098403E97835707006B
:101234005D8D2310A7009737000083C7A77491C75B
:10124400850717370000230FF7721737000003478D
:1012540067739737000083C7F772E375F7ECB24002
:101264002244924402494101828013971700329725
:10127400035707006DF7850735BFAD6737C70040D3
:10128400BD072326F7200F1000009737000093872F
:10129400676FC84F83278726BD66BD0693C7F7FFD0
:1012A40099836A052326D7205D8D82804111B71763
:1012B4000040985F3AC6945F3247E39CE6FE3245AD
:1012C4004101828082800327851163000712411146
:1012D40022C406C68347C5008345C5042A8493F700
:1012E400C70F2306F500834697000356C7001395DE
:1012F4008601618563F1C508635A050603458700C5
:1013040093F6F607A304D700054693E62700631473
:10131400C50093E617002306D4005C4389075CC329
:10132400A30AB400032504112E864C430905013693
:101334008327841103465401D44303D7C700B296CC
:10134400118FD4C32396E7008947A30DF400034704
:1013540044039737000083C787696378F70483479A
:10136400C40093E707012306F40081A093E7170064
:101374002306F40075B79376F60F635D0502034503
:101384008700854513E627006314B50013E61700AC
:101394002306C400A30AD400A30407008547A30DB1
:1013A400F400832784119C43DDF3B24022440145B9
:1013B4004101828093E717002306F400A30AD400B6
:1013C400A3040700032504114C4309058D34832726
:1013D400841103465401D44303D7C700B296118F36
:1013E400D4C32396E7008D475DBF054582809737B8
:1013F40000009387E7769C43411122C406C6858B7F
:101404002A84C5EF4165130525F5979001E0E7802F
:10141400A0AD45C58347A5002315F5008327041215
:10142400BDE72320A4122322A41285472310F40429
:10143400232005008347640154412316F500034724
:10144400D4002304E5000547A304E5001737000092
:1014540013070772184F1385170215811C437D1556
:101464001375F50F9CC25C43DCC21C479CC65C47E9
:10147400DCC61C4B9CCA5C4BDCCA1C4F9CCE5C4F2C
:10148400DCCE19CD9386060213070702C1BF83275A
:10149400441288C3835704042322A412850779B70E
:1014A4009737000083D787798507173700002317FC
:1014B400F778B2402244410182808347C400230963
:1014C4000400054593C747002306F400DDB78347AE
:1014D400850193F7E70FCDEB83479501D5E70346E5
:1014E40025018346C50009CA834545031737000013
:1014F4000347F74F63E7E50013F7060159C70147B0
:1015040009C6C18A0357851B81C68356C51B3697F6
:101514002DCFB7470F009736000083D6264993870F
:101524000724B3C7D7021307C712411126C222C426
:1015340006C67D543357F7029737000083C7974B8D
:10154400B384E700973700009387C76E83A6C70864
:1015540083A7060963F387003E849442F5FA97371C
:1015640000009387E74B9C43829781476364A40000
:10157400B307A440B2402244B3B7970093C71700FF
:1015840092443E854101828081473E858280797103
:1015940026D206D622D44AD04ECE52CC56CA5AC8E7
:1015A4005EC68347350303447513AA843E941374BB
:1015B400F40F9307400263F687001304B4FD137419
:1015C400F40F03AA841383AAC413A38B8412228660
:1015D4005285D685978002E0E7802046058915E587
:1015E40003CBD41201498149337B6403930B50022A
:1015F4004A865285D685978002E0E78000440589B3
:1016040015C5639169031374F90F238B8412B250C7
:10161400225492540259F249624AD24A424BB24B82
:10162400456182808509E20993D989410509E3115D
:1016340079FDE1BF832785090356E503797193D6C4
:101644000701BD8EC206C182358E1357764093576B
:101654005640898B058B5D8F93573640918B5D8FF8
:1016640093571640A18B5D8F93171600C18B5D8F26
:101674009317360093F707025D8F9317560093551F
:10168400860093F707041E065D8F1376F60F518FBD
:1016940093D7554013D63540118A898BD18F13D6F1
:1016A4007540D18F13D61540218AD18F139615001A
:1016B400418AD18F1396350013760602D18F139683
:1016C4005500137606049E05D18F93F5F50FCD8F43
:1016D400A20745465D8F3307C70222D42A8426D247
:1016E40052CC56CA032A8413832AC4135AC806D672
:1016F40036974207418393577740135557400989DA
:10170400858BC98F135537401189C98F13551740DD
:101714002189C98F131517004189C98F1315370003
:1017240013750502C98F1315570093558700137558
:1017340005041E07C98F1377F70FD98F13D53540CA
:1017440013D755401189098B498F13D57540498F9B
:1017540013D515402189498F139515004189498F67
:101764001395350013750502498F139555001375AC
:1017740005049E05498F93F5F50F4D8F2207D98FE8
:10178400B387C7024AD04ECE5EC662C4B697C207BC
:10179400C18313D7774013D557400989058B498FE7
:1017A40013D537401189498F13D517402189498FA3
:1017B400139517004189498F139537001375050256
:1017C400498F1395570093D58700137505049E0719
:1017D400498F93F7F70FD98F13D5354013D7554059
:1017E4001189098B498F13D57540498F13D515403D
:1017F4002189498F139515004189498F1395350027
:1018040013750502498F13955500137505049E053C
:10181400498F93F5F50F4D8F2207D98FB387C702F0
:10182400130650025285D685B697BD8E9394060151
:10183400C18033F6C402137BF60F978002E0E78081
:10184400C01F05890DED8347D41201498149B38432
:101854009702130C5002C1804A865285D685978020
:1018640002E0E780801D0589937BF90F11C563862B
:101874003403850993F9F90F0509E31F89FD230B47
:101884006413B250225492540259F249624AD24A21
:10189400424BB24B224C456182805E8BCDB7011125
:1018A400973700009387073922CC03A4070B26CA75
:1018B40006CE2AC42EC6854419E40145F24062448A
:1018C400D244056182808347910003471400858BCD
:1018D4006304F7000044CDB719469305A10013052E
:1018E4002400EFF0CFDDE31795FE0545C1BF0111DC
:1018F40022CC173400001304642918402AC62EC4CD
:1019040032C206CE3C4B93F7F7F73CCB97E001E0AD
:10191400E78020151840973600009386A6243C4B98
:1019240093E707083CCB9C423245A24523A007001D
:10193400034715000348250022074208429703483D
:1019440005004297034835006208429798D7034739
:1019540055000348650022074208429703484500A2
:1019640042970348750062084297D8D70347950009
:101974000348A5002207420842970348850042977E
:101984000348B5006208429798DB0347D500034833
:10199400E5002207420842970348C5000345F500C5
:1019A400429762052A97D8DB03C7150003C52500B3
:1019B400220742052A9703C505002A9703C5350067
:1019C40062052A9798CF03C7550003C5650022070F
:1019D40042052A9703C545002A9703C57500620589
:1019E4002A97D8CF03C7950003C5A500220742054F
:1019F4002A9703C585002A9703C5B50062052A976F
:101A040098D303C7D50003C5E500220742052A97EA
:101A140003C5C50083C5F5002A97E2052E97D8D3E0
:101A2400D843759BD8C3D84313671700D8C39843CA
:101A34001367170098C3124698425C43858BD1E71D
:101A44001C4F01452300F6009C429C4FA183A30038
:101A5400F6009C429C4FC1832301F6009C429C4F9C
:101A6400E183A301F6009C42D84F2302E600D84F3D
:101A74002183A302E600D84F41832303E600D84F15
:101A84006183A303E60098532304E600985321835B
:101A9400A304E600985341832305E6009853618329
:101AA400A305E600D8532306E600D8532183A306F2
:101AB400E600D85341832307E600DC53E183A30700
:101AC400F600F2406244056182800100B5B75D71A1
:101AD4003AD2173700001307270936D414433ED0EF
:101AE40022DE9C5E4ACA86C6998396C49AC29EC068
:101AF40026DC2ADA2ED832D642CE46CC72C876C636
:101B04007AC47EC2858B3A8417390000130989058B
:101B1400D1CB9C5E973400009384840593F7F7F946
:101B24009CDE173700000347070593070008631B73
:101B3400F700832709009C4393F707041737000035
:101B4400230BF70283C7040093F707049DC3973759
:101B540000009387E7EC9C4382979737000023A10A
:101B6400A70283C7040093F7F70B1737000023017C
:101B7400F70083C7440093F707048DE785471737B9
:101B84000000A309F7FE97370000938727009C43C2
:101B9400096798C7130700FC97360000238CE6FCFE
:101BA400D844F8D31C40985F1183058B09CB985F08
:101BB4003D9B98DF054797360000238DE6FA985F32
:101BC4001D83058B11CB985F1377F7F798DF854753
:101BD400173700002300F7FA83270900D843058349
:101BE400058B19C7D843759BD8C3D843799BD8C3F1
:101BF4007254B640A64216438643E2545255C25527
:101C04003256A256125782577248E2485249424EFF
:101C1400B24E224F924F616173002030973700001B
:101C24009387C7F6944397370000938767F403C7F5
:101C34000700058B11CB97370000238D07F29737E8
:101C44000000A38907F2828003C71700058B65F79C
:101C5400F85271FF83C75700DDB717380000130827
:101C6400A8F0032708001C5F9583858BD5EB1DC660
:101C740097370000938707FC8398670403030600E3
:101C84001C5BBD83630B030893F7F71FB3871741EE
:101C94009A970947B3C7E7022300F60085CA83274A
:101CA4000800985B4607935767016356070093E75C
:101CB40007C0C207C18303970600C207C18709C7CB
:101CC400BA970947B3C7E7022390F6009DC9834733
:101CD400150085CB9736000083C6E6E993F6060423
:101CE40013879700914785CA3A95034705008546AF
:101CF4001376F7066311D60262076187B147634C16
:101D04000700832708009C5FED838D8B1737000045
:101D1400A305F7E681473E858280B3871741ADBFAF
:101D24008947D5BF411122C406C6173400001304E5
:101D3400E4E5184049E9AE877453FDFE3E85B2855B
:101D440097370000238707E297E001E0E780A0AE21
:101D540097370000938747E19C43B7068000984378
:101D6400558F98C3D857719BD8D797370000A38352
:101D740007E097370000A38D07DE1C40094798C38E
:101D8400B7F700E003A707D16D9B23A8E7D003A70B
:101D940007D15D9B23A8E7D0730050101440173778
:101DA40000001307E7DC83472700858B89EB834713
:101DB4003700858BD9C797370000238D07DAB240E7
:101DC4002244410182808D476310F5029737000059
:101DD400938787D99C43B70680009843558F98C34F
:101DE400D857719BD8D75DBF8547E319F5FAB56716
:101DF400BD075CC70F1000001C400967094698C75F
:101E0400130700F8973600002386E6D6173700003C
:101E1400130787D51443984231830D8B6319C70088
:101E24001307E043F8D33D673D07D8C785BF984201
:101E340031830D8B01E713076019EDB71307E01B1E
:101E4400D5B7FC52ADF3A5BF5D714EDE97390000E6
:101E5400938989D103A7090086C6A2C4A6C2CAC0B1
:101E640052DC1C4317390000130989D6173A0000C5
:101E7400130ACAD193F7F7E793E707081CC383262D
:101E840009003707CEFF7D179C46130680022A847B
:101E9400F98F9CC683270A00130700082800B8CBD3
:101EA400AE8493051008EFE01FFC97E001E0E780A3
:101EB40040BB97E001E0E78040C883A70900937620
:101EC400F41FB70EFCFF23A40700984B130510F86A
:101ED400CE851367F70398CBF84F4A88B70F0400F1
:101EE400137707E0558FF8CF9843F576FD16758F75
:101EF40098C39843B706330091421377F7E798C322
:101F04009843FD1E85431377F7E71367071098C3BB
:101F140003270900130F80021C47D58F1CC7832792
:101F24000A001307900D3400B8CB014793583700CB
:101F3400A69883C7080013767700B3D7C740858B6C
:101F4400DDC79C41032E0800239C07042390070649
:101F54000323CE021373D3FF23266E0203AE0700BE
:101F64001373F707137E0EF833636E0023A0670024
:101F740003A347023363F30123A26702014303DE91
:101F840007066307C30303A30703038E0600135363
:101F9400F30062031353834163586E0003A30703E2
:101FA4001353F3002380660003D307061373F30F60
:101FB40003DE8705E3F5C2FD03A347023373D301B0
:101FC40023A2670283870600635CF40003C308004E
:101FD4003396C3001346F6FF337666002380C800A9
:101FE4003E8663D3A7002A861315860161850507FB
:101FF4001377F70F8506E31BE7F3B64026449644B0
:102004000649F259625A61618280011136C89736D5
:1020140000009386A6B73EC49C423AC632CAD8474B
:102024002ACE2ECC131617016355060298471316B1
:102034001701635006027D57B8D7173700001307FE
:102044006794584F050717360000232BE694116751
:1020540098C798470D83058B1DC3173700000347A6
:1020640047B113671700173600002304E6B01307BF
:1020740000F817360000230FE6AE214798C79847AB
:10208400058B09CF17370000034797AE1367170076
:1020940017360000A30EE6AC054798C79847098396
:1020A400058B09E798470583058B39CF9847173681
:1020B40000001306E6AB173500001305E5AA0983F3
:1020C400058B630C07101841184331830D8B631380
:1020D4000710AC4B184E93F5050203471700E9C5EA
:1020E4007DE713077006D8CF034706001367170070
:1020F40017360000230EE6A6114798C718415C570F
:10210400F19B93E717005CD79C42984793163701DD
:1021140063D606029736000083C6C6B8C18A17374D
:102124000000130727B1E1C6034707071367070237
:10213400973600002388E6B6056798C79847931634
:10214400270163D10602173700000347A7A26207DD
:10215400618763570700054797360000238CE6A084
:10216400096798C798479316070163D606029736FE
:10217400000083C636B3858A17370000130787AB80
:10218400C9C6034717071367270097360000A38BB8
:10219400E6B0216798C77245E2455246C2463247C7
:1021A400A2470561730020300DDF85456315B70034
:1021B4001307B0060DBF89456315B7001307F00672
:1021C4001DB78D456315B7001307300729BF1307E3
:1021D400500711BF1307600739B703473600136769
:1021E400170017360000A306E698094739B7834657
:1021F40007070946BD8A6388C600034707078D465B
:102204003D8BE31BD7F2114725B783461707918A05
:10221400C9D2034717071367870085BF1737000024
:10222400130707978346B7019737000083C71799A9
:10223400B69793F7F70FFD4663EAF6044C4B9736CF
:102244000000A387F6949737000083C77794054767
:102254003317F70097360000A382F6966D8F1DEFB3
:102264009736000083C6D695B3F6D702130500024D
:10227400814733D6F500058A13F8F70F09CE639921
:10228400E60097370000A3850791828081177DB708
:1022940005071377F70F8507E39DA7FC828097272F
:1022A40000009387E7779C43011122CC4EC606CEEB
:1022B40026CA4AC852C456C28297973700009387E9
:1022C400278F804781496305A406BE8497270000B1
:1022D4009387C770038767013E8963550706018D9D
:1022E400135455009737000083C7278C9379F50161
:1022F400636DF402370AC0A8B70A405705379C44F7
:102304009736000083C6668A139756003E97830764
:102314006901158C63C507006363470156979737B6
:10232400000023ABE788E37BD4FC1604B3693401D3
:10233400F24062444E85D2444249B249224A924A0A
:1023440005618280E37D85F8B707C0A833848740A0
:10235400229579B7972700009387876C9C43411196
:1023640022C406C626C28297973700009387478403
:1023740080476309A406BE849727000093870766F5
:102384008387670163D80704018D13545500973779
:10239400000083C787816367F404493598449737FD
:1023A400000083C787809396570036971D8C973615
:1023B400000023A3E680E372F4FE2244B240924478
:1023C400172500000345D57C8145410117E301E051
:1023D4006700C3BAE37A85FAB707C0A83384874095
:1023E400229565B7B24022449244410182809727E6
:1023F40000009387E77D9843B75702009387079FB0
:102404008326070913965600635806008326070996
:102414001396660063440600FD17FDF3828071C5C0
:10242400AA870145E9C58D07C207C183F19BC2078D
:10243400C18313074003636FF702172700001307D4
:10244400E77E0843172700001307C77D14436398EA
:10245400A6021727000013076758185B014541CBF4
:102464004111C20706C60545DD8D0297B2400145FC
:1024740041018280172700001307077BD9B7035750
:10248400650035E303574500636FF704B306F7406F
:102494002146637CD60203280500938687001D8F9E
:1024A400AA966117172600000356264E2392E600CB
:1024B40023A006012393060014C12312F500130779
:1024C40086FF972600002392E64C2313B500972538
:1024D400000083D5854BB387F540172700002316EA
:1024E400F74A2105828008419DB701458280828098
:1024F4000DC1972700009387677303A307009727ED
:1025040000009387277283A8070081469A8763E3B4
:102514001701828003A80700636DF50A636BA80A9C
:1025240013878700E367E5FE03D667002167050785
:102534006317E60003C7C1950507238EE194972529
:1025440000009385254403D6470003D765002393F1
:102554000700329742074183172500002317E542FD
:10256400638A6702172500001305056C084163039D
:10257400F50203D5660019ED83D7460023A00601B2
:1025840021073E9621062392C60097270000239E2A
:10259400E73EB6879843E30E17F797260000938625
:1025A400A6689442E307D7F683566700BDF283D644
:1025B4004700035647001843A106B2962392D7005A
:1025C40098C383D76500A10717270000231FF73A94
:1025D4008280BE86C28725BF01119727000093879A
:1025E400676522CC03A4870B26CA4AC84EC606CE0A
:1025F400AA8413092500854915C083C7140003471D
:102604003400858B6304F700405CFDB719469305DD
:1026140044004A85EFE0BF8AE31835FF2285F24083
:102624006244D2444249B2490561828041119727EC
:1026340000009387276022C403A4870B26C24AC0E4
:1026440006C693042500054901E82285B2402244C8
:102654009244024941018280A6851305A402977021
:1026640002E0E780C0F2E30225FF405CF1BF4111C4
:10267400972700009387075C22C403A4870B26C214
:102684004AC006C693042500054901E82285B240E4
:1026940022449244024941018280A6851305A40183
:1026A400977002E0E780A0EEE30225FF405CF1BFF3
:1026B80097110020938101DB176100201301019419
:1026C8001305400097E5FF1F9385459317060020E3
:1026D8001306C6FD63FAC5008322050023A0550032
:1026E80011059105E3EAC5FE17C502001305859398
:1026F80097050020938585FB1386C18863FAC5007A
:102708008322050023A0550011059105E3EAC5FEC3
:102718001385018997250020938505636377B500A4
:10272800232005001105E36DB5FEFD42739002BC40
:102738008D42739042809302800873A0023097E222
:10274800FF1F9382A28B93E23200739052309782DC
:1027580000009382627773901234730020303D43F7
:102768002A876373C3029377F700BDEFADE59376CD
:1027780006FF3D8ABA960CC34CC30CC74CC7410729
:10278800E36BD7FE11E28280B306C3408A06970244
:10279800000096966780A6002307B700A306B70037
:1027A8002306B700A305B7002305B700A304B700A5
:1027B8002304B700A303B7002303B700A302B7009D
:1027C8002302B700A301B7002301B700A300B70095
:1027D8002300B700828093F5F50F93968500D58D79
:1027E80093960501D58D61B793962700970200004F
:1027F80096968682E78086FA9680C1171D8F3E9648
:10280800E374C3F8A5B7011122CE0010232404FEF7
:10281800A30304FE230304FEB7170040938787052C
:1028280083C70700A303F4FEB717004093879705F3
:1028380083C707002303F4FEB71700409387970563
:1028480023800700B7170040938787050547238033
:10285800E700B71700409387970583C7070013F76A
:10286800F70FB717004093879705136797021377F9
:10287800F70F2380E700B71700409387A7050547A0
:102888002380E7000100B71700409387A70583C797
:10289800070093F7F70F858BFDF7231704FE99A818
:1028A800B71700409387A70505472380E700010075
:1028B800B71700409387A70583C7070093F7F70F5B
:1028C800858BFDF7B71700409387C70583D70700A7
:1028D800C207C18313C7F7FF8567FD17F98F3E87C6
:1028E800832784FEBA972324F4FE8357E4FE8507E2
:1028F8002317F4FE0357E4FEBD47E3F3E7FA832703
:1029080084FEA10791832324F4FEB7170040938720
:10291800970583C7070013F7F70FB717004093878A
:1029280097055D9B1377F70F2380E700B7170040E3
:1029380093878705034774FE2380E700B717004095
:1029480093879705034764FE2380E700832784FE67
:10295800C207C183056713070780B307F740C2079B
:10296800C183C207C1873E85724405618280011117
:1029780022CE00102326A4FE2324B4FEB71700405D
:102988009387770583C7070013F7F70FB71700403A
:1029980093877705799B1377F70F2380E7008327C1
:1029A800C4FE93F7F70F9A0713F7F70F832784FEF0
:1029B80093F7F70F920793F7F70FD98F13F7F70FDE
:1029C800B717004093879705136737001377F70FFA
:1029D8002380E7000100724405618280411122C60C
:1029E8000008B71700409387770583C7070013F7D8
:1029F800F70FB717004093877705799B1377F70F81
:102A08002380E700B71700409387B705130700F83E
:102A18002380E700B7170040938787053D47238049
:102A2800E700B717004093879705130750032380E3
:102A3800E7000100324441018280411122C60008AA
:102A4800B71700409387A70505472380E7000100D3
:102A5800B71700409387A70583C7070093F7F70FB9
:102A6800858BFDF7B71700409387C70583D7070005
:102A78001397070141838567FD17F98FC207C18343
:102A88003E85324441018280797106D622D40018ED
:102A9800232EA4FCA30704FEEF10405AAA87232480
:102AA800F4FEB717004093870704130770052380C7
:102AB800E700B717004093870704130780FA2380BD
:102AC800E70001000100B71700409387F70283C7AA
:102AD800070013F7F70FB71700409387F70213673C
:102AE80087001377F70F2380E700B7170040938715
:102AF800F70283C7070013F7F70FB717004093874C
:102B0800F7025D9B1377F70F2380E700B7170040A4
:102B18009387E70283C7070013F7F70FB71700403B
:102B28009387E702719B1377F70F2380E700B717A6
:102B380000409387E70283C7070013F7F70FB7171B
:102B480000409387E702136717001377F70F238076
:102B5800E700B71700409387070413077005238021
:102B6800E700B717004093870704130780FA23800C
:102B7800E70001000100B71700409387370583C7B6
:102B8800070013F7F70FB717004093873705619BC6
:102B98001377F70F2380E700B717004093873705AF
:102BA80083C7070013F7F70FB71700409387370558
:102BB800136717001377F70F2380E700B717004054
:102BC80093870704130770052380E700B7170040B1
:102BD80093870704130780FA2380E70001000100A8
:102BE800B71700409387370583C7070013F7F70F18
:102BF800B717004093873705136707021377F70F56
:102C08002380E700B71700409387070583D707009D
:102C180093960701C182B71700409387070511678C
:102C2800558F420741832390E700A9A0B7170040BA
:102C380093870704130770052380E700B717004040
:102C480093870704130780FA2380E7000100010037
:102C5800B71700409387370583C7070013F7F70FA7
:102C6800B717004093873705136707021377F70FE5
:102C78002380E700B71700409387370583C707000D
:102C880093F7F70F13F7070293070002E310F7FA19
:102C98000100B71700409387370583C7070093F7EC
:102CA800F70FA18BFDD7B71700409387070583D788
:102CB8000700C207C1832322F4FE0100B7170040B2
:102CC8009387370583C7070093F7F70FA18BFDF7A5
:102CD800B71700409387070583D707009396070126
:102CE800C182B7170040938707051167558F4207C0
:102CF80041832390E7000100B71700409387370509
:102D080083C7070093F7F70FA18BFDD7B7170040CC
:102D18009387070583D70700C207C1832322F4FEE0
:102D2800032744FE9167FD177D8FB71700409387EF
:102D3800270583C7070093F7F70FBE86B687BA073C
:102D4800958FBA97832684FE1167130707E833C760
:102D5800E602998F2320F4FE032784FE930780C19F
:102D68003347F702BA878E07BA978A073E97A16753
:102D7800938707D0B347F702032704FE63D6E70219
:102D8800032784FE9307803E3347F702BA878E07EE
:102D9800BA978A073E97A167938707D0B347F70288
:102DA800032704FE6343F70E0347F4FE894763EEE7
:102DB800E70C8347F4FE8507A307F4FE832704FE88
:102DC800635EF002832704FE93961700032784FEB0
:102DD8009307803E3347F702BA878E07BA978A0768
:102DE8003E97A167938707D0B347F702B3C7F602A8
:102DF800850713D7F701BA97858725A8832704FE87
:102E080093961700032784FE9307803E3347F70203
:102E1800BA878E07BA978A073E97A167938707D024
:102E2800B347F702B3C7F602FD1713D7F701BA97EE
:102E380085872320F4FEB7170040938707041307FC
:102E480070052380E700B71700409387070413072E
:102E580080FA2380E70001000100B717004093873C
:102E6800C70283D7070093960701C182832704FE10
:102E7800139707014183B71700409387C702369716
:102E8800420741832390E70021B50100B7170040AE
:102E98009387370583C7070093F7F70FA18BFDD7F3
:102EA800B71700409387070583D70700C207C18378
:102EB8002322F4FEB71700409387070583D707003E
:102EC80093960701C182B7170040938707051167DA
:102ED800558F420741832390E700B7170040938737
:102EE8000704130770052380E700B717004093878E
:102EF8000704130780FA2380E70001000100B717D1
:102F080000409387370583C7070013F7F70FB717F4
:102F1800004093873705619B1377F70F2380E700FD
:102F2800B71700409387370583C7070093F6F70F55
:102F38008327C4FD13F7F70FB717004093873705AA
:102F4800558F1377F70F2380E7000100B71700406C
:102F58009387370583C7070093F7F70FA18BFDF712
:102F68000100B71700409387370583C7070093F719
:102F7800F70FA18BFDD7B71700409387070583D7B5
:102F88000700C207C1832322F4FE032744FE91678A
:102F9800FD177D8FB71700409387270583C7070064
:102FA80093F7F70FBE86B687BA07958FBA970327A8
:102FB800C4FD8566938606FAB396E600032684FE6A
:102FC80037470F00130707243347E602B386E602A4
:102FD8002167130707D0B3C6E6021307803E33877D
:102FE800E602998F2320F4FE832704FE6355F0043C
:102FF8008327C4FD0567130707C83357F74083279E
:1030080004FE3307F702832684FE9307803EB3C687
:10301800F60293076055B386F602A167938707D037
:10302800B3C7F602B347F702850713D7F701BA9774
:103038008587960799A08327C4FD0567130707C8E6
:103048003357F740832704FE3307F702832684FEAD
:103058009307803EB3C6F60293076055B386F6021F
:10306800A167938707D0B3C7F602B347F702FD17E6
:1030780013D7F701BA97858796072320F4FEB71769
:10308800004093870704130770052380E700B717EC
:10309800004093870704130780FA2380E7000100A4
:1030A8000100B71700409387C70283D7070093969C
:1030B8000701C182832704FE139707014183B717CD
:1030C80000409387C7023697420741832390E70061
:1030D800B71700409387370583C7070013F7F70F23
:1030E800B7170040938737051377F7FD1377F70F66
:1030F8002380E7000100B250225445618280397173
:1031080022DE80002A882E85B2853686BA863E87DA
:10311800C2872317F4FCAA872316F4FCAE8723156D
:10312800F4FCB2872314F4FCB6872313F4FCBA87A3
:103138002312F4FC8357E4FC2317F4FE8357C4FCE2
:103148002316F4FE231504FEB9A08357E4FE138763
:10315800F7FF93070019B367F70299CF8357E4FE87
:103168001387F7FF93074006B367F70289CB8357A6
:10317800E4FEFD178D8B81E79307E01619A09307EE
:10318800D0160357A4FEBA972315F4FE8357E4FE1E
:10319800FD172317F4FE0357E4FE9307407EE3E68A
:1031A800E7FA69A00357C4FE8D476313F704035772
:1031B800E4FC93070019B377F702C207C18385C3FC
:1031C8000357E4FC93074006B377F702C207C183AD
:1031D80089CB8357E4FC8D8BC207C18399E385476C
:1031E80011A08147C207C183F107C207C1832DA07F
:1031F8000357C4FEA14763FAE7008357C4FE858BD3
:1032080099C3FD4711A8F94701A88357C4FE858BC8
:1032180099C3F94711A0FD470357A4FEBA97231590
:10322800F4FE8357C4FEFD172316F4FE0357C4FEAD
:103238008547E3E9E7F60357A4FC8357A4FEBA974A
:10324800C207C183FD172315F4FE035784FCE14729
:10325800B377F70213970701418393078070B30789
:10326800F70293960701C182035764FCBA87920755
:10327800998F8607C207C183B697139707014183C1
:10328800835744FC8583C207C183BA972314F4FE8D
:10329800835744FCBE072313F4FE835784FE232080
:1032A800F4FE832704FE13970701835764FED98F22
:1032B8002320F4FEB71700409387F70283C707005F
:1032C80093F7F70F93F707F893F7F70FA30FF4FCAB
:1032D8008347F4FD93F7F70F3E87B71700409387AE
:1032E800F70283C7070093F7F70F93F70708E3136D
:1032F800F7FC8347F4FD93F7F70FB1E781A0B71701
:1033080000409387F70283C7070093F7F70F93F7F7
:1033180007F893F7F70FA30FF4FC8347F4FD93F72F
:10332800F70F3E87B71700409387F70283C7070058
:1033380093F7F70F93F70708E313F7FC8347F4FDB8
:1033480093F7F70FCDDFB7170040938707041307EC
:1033580070052380E700B717004093870704130719
:1033680080FA2380E70001000100B7170040938727
:1033780047030357A4FE98C3B71700409387170362
:1033880083C7070013F7F70FB71700409387170392
:10339800136707F81377F70F2380E7000100B717C3
:1033A8000040938747039843B71700409387C703A4
:1033B8009C433D8F9167FD17F98FF5F3B7170040D0
:1033C80093870704130770052380E700B7170040A9
:1033D80093870704130780FA2380E70001000100A0
:1033E800B717004093874703032704FE98C3B7170E
:1033F80000409387170383C7070013F7F70FB71722
:10340800004093871703136707041377F70F238088
:10341800E700B717004093870704238007000100DF
:10342800725421618280011122CE00102326A4FE4D
:103438002324B4FE032784FE914763E0E71A832719
:1034480084FE139727009797020093876742BA97DD
:103458009843979702009387A741BA978287B7172F
:1034680000409387470B94438327C4FE13C7F7FF95
:10347800B71700409387470B758F98C3B71700405D
:103488009387070B94438327C4FE13C7F7FFB71727
:1034980000409387070B758F98C3B7170040938731
:1034A800070A94438327C4FE13C7F7FFB7170040E2
:1034B8009387070A758F98C315A2B717004093879B
:1034C800470B94438327C4FE13C7F7FFB717004081
:1034D8009387470B758F98C3B71700409387070BDF
:1034E8009443B71700409387070B0327C4FE558FF3
:1034F80098C3B71700409387070A94438327C4FEED
:1035080013C7F7FFB71700409387070A758F98C34B
:10351800F1A0B71700409387470B9443B7170040B3
:103528009387470B0327C4FE558F98C3B7170040EE
:103538009387070B94438327C4FE13C7F7FFB71776
:1035480000409387070B758F98C3B7170040938780
:10355800070A94438327C4FE13C7F7FFB717004031
:103568009387070A758F98C395A8B7170040938764
:10357800470B94438327C4FE13C7F7FFB7170040D0
:103588009387470B758F98C3B71700409387070A2F
:103598009443B71700409387070A0327C4FE558F43
:1035A80098C32DA8B71700409387470B9443B717C4
:1035B80000409387470B0327C4FE558F98C3B7175E
:1035C80000409387070A9443B71700409387070A78
:1035D8000327C4FE558F98C311A00100010072444F
:1035E80005618280011122CE00102326A4FE232427
:1035F800B4FE032784FE914763E0E71A832784FE1D
:1036080013972700979702009387C727BA9798437D
:103618009797020093870727BA978287B7170040C2
:103628009387470D94438327C4FE13C7F7FFB71743
:1036380000409387470D758F98C3B717004093874D
:10364800070D94438327C4FE13C7F7FFB71700403D
:103658009387070D758F98C3B71700409387070C9A
:1036680094438327C4FE13C7F7FFB7170040938717
:10367800070C758F98C315A2B71700409387470D9D
:1036880094438327C4FE13C7F7FFB71700409387F7
:10369800470D758F98C3B71700409387070D94435C
:1036A800B71700409387070D0327C4FE558F98C3AB
:1036B800B71700409387070C94438327C4FE13C7AA
:1036C800F7FFB71700409387070C758F98C3F1A0D1
:1036D800B71700409387470D9443B7170040938767
:1036E800470D0327C4FE558F98C3B717004093872B
:1036F800070D94438327C4FE13C7F7FFB71700408D
:103708009387070D758F98C3B71700409387070CE9
:1037180094438327C4FE13C7F7FFB7170040938766
:10372800070C758F98C395A8B71700409387470D66
:1037380094438327C4FE13C7F7FFB7170040938746
:10374800470D758F98C3B71700409387070C9443AC
:10375800B71700409387070C0327C4FE558F98C3FB
:103768002DA8B71700409387470D9443B71700401B
:103778009387470D0327C4FE558F98C3B71700409A
:103788009387070C9443B71700409387070C0327C8
:10379800C4FE558F98C311A0010001007244056151
:1037A8008280397106DE22DC8000232EA4FC232CC3
:1037B800B4FC232AC4FC2328D4FC2326E4FC2315C8
:1037C800F4FCEF00B0072324A4FEB757004093870A
:1037D800478083D70700139707014183B7570040F5
:1037E80093874780137707FC420741832390E700BC
:1037F800B75700409387478083D707009396070100
:10380800C182032784FEB7470F0093870724B35765
:10381800F702139707014183B75700409387478002
:10382800558F420741832390E700B757004093879D
:10383800078083D70700139707014183B7570040D4
:1038480093870780799B420741832390E7000327EA
:1038580084FDE1679387076A63E1E706832784FDB0
:103868008607032784FEB357F7021397070141839E
:103878008567FD17F98F2317F4FE0357E4FE8D477C
:1038880063E5E70091472317F4FE032784FEB74753
:103898000F0093870724B357F70285071307F00330
:1038A8006374F7009307F003375700401307078244
:1038B800C207C1832310F70055A8832744FD9DE361
:1038C800032784FDBA878607BA97032784FEB35770
:1038D800F7021397070141838567FD17F98F2317AF
:1038E800F4FE15A8032784FDBA878607BA978E07C2
:1038F800BA97032784FEB357F7021397070141834A
:103908008567FD17F98F2317F4FE0357E4FE9167C7
:10391800D98F2317F4FE8357E4FE99E78357E4FE13
:1039280093E717002317F4FE0357E4FEE177D98FD6
:103938002317F4FE032784FEB7470F009387072455
:103948003357F7029307C0123307F7029307803EF5
:10395800B357F702139707014183B757004093877E
:1039680007820507420741832390E700B7570040C5
:103978009387C7810357E4FE2390E700B7570040B9
:103988009387078083D70700139707014183B757A9
:1039980000409387078013671700420741832390ED
:1039A800E700B75700409387078083D7070013972E
:1039B80007014183B757004093870780137757BFA4
:1039C800420741832390E700B75700409387078059
:1039D80083D7070093960701C1828327C4FD1397F5
:1039E80007014183832704FDC207C183D98F139739
:1039F80007014183B757004093870780558F4207D7
:103A080041832390E700B75700409387878083D787
:103A18000700B75700409387878023900700B75760
:103A280000409387878083D7070093960701C18258
:103A38008327C4FC1397070141838357A4FCD98FBC
:103A4800139707014183B757004093878780558FA5
:103A5800420741832390E7000100F250625421613C
:103A68008280011122CE00102326A4FE8327C4FEE3
:103A78008DC7B75700409387078083D707001397F0
:103A880007014183B75700409387078013670710E2
:103A9800420741832390E70025A0B757004093874A
:103AA800078083D70700139707014183B757004062
:103AB800938707801377F7EF420741832390E70046
:103AC8000100724405618280011122CE0010232674
:103AD800A4FE8327C4FE8DC7B7570040938707808D
:103AE80083D70700139707014183B757004093878F
:103AF800078013670720420741832390E70025A02A
:103B0800B75700409387078083D7070013970701AB
:103B18004183B7570040938707801377F7DF420741
:103B280041832390E70001007244056182800111FE
:103B380022CE00102326A4FE8327C4FE8DC7B757C4
:103B480000409387078083D70700139707014183B5
:103B5800B7570040938707801367074042074183A0
:103B68002390E70025A0B75700409387078083D7A5
:103B78000700139707014183B757004093870780D1
:103B88001377F7BF420741832390E700010072448F
:103B980005618280011122CE00102326A4FE232471
:103BA800B4FE832784FE8DCBB757004093874780A8
:103BB80083D7070093960701C1828327C4FE139712
:103BC80007014183B757004093874780558F4207C5
:103BD80041832390E70025A8B75700409387478083
:103BE80083D7070093960701C1828327C4FEC207C3
:103BF800C18393C7F7FF139707014183B757004065
:103C080093874780758F420741832390E70001001F
:103C1800724405618280011122CE0010AA87A30791
:103C2800F4FEB7570040938707810347F4FE420725
:103C380041832390E70001007244056182804111AD
:103C480022C60008B75700409387078183D707002B
:103C5800C207C18393F7F70F3E8532444101828042
:103C6800011122CE0010AA872E87A307F4FEBA8777
:103C78002307F4FE8347E4FE81CB8347F4FE93E7F2
:103C88001700A307F4FE31A08347F4FEF99BA307AE
:103C9800F4FEB7570040938707810347F4FE4207B5
:103CA80041832390E700010072440561828001117D
:103CB80022CE00102326A4FE8327C4FE8DC7B75743
:103CC80000409387078083D7070093960701C18236
:103CD800B7570040938707806177558F4207418324
:103CE8002390E7002DA0B75700409387078083D71C
:103CF800070093960701C182B75700409387078052
:103D080021677D17758F420741832390E7000100E3
:103D1800724405618280797122D60018232EA4FC92
:103D2800232404FE232204FE232004FEA30704FE0A
:103D3800B75700409387478183D70700C207C183DD
:103D48002322F4FEB75700409387878183D7070063
:103D5800C207C1832320F4FE832704FEC207232061
:103D6800F4FE032744FE832704FE5D8FB707000196
:103D7800FD17F98F2324F4FE032784FE8327C4FD4F
:103D8800F98F0327C4FD6316F7008547A307F4FEE0
:103D980019A0A30704FE8347F4FE3E85325445610B
:103DA8008280011122CE0010232604FE232404FE63
:103DB800232204FEB75700409387478183D7070023
:103DC800C207C1832324F4FEB75700409387878135
:103DD80083D70700C207C1832322F4FE832744FE4A
:103DE800C2072322F4FE032784FE832744FE5D8F47
:103DF800B7070001FD17F98F2326F4FE8327C4FEB9
:103E08003E85724405618280797122D60018232E7E
:103E1800A4FC232604FE232404FE232204FEB75711
:103E28000040938707802322F4FE8327C4FDF18393
:103E38002324F4FE0327C4FDB7070001FD17F98FFB
:103E4800232EF4FC832784FE99C7832744FED107D9
:103E58002322F4FE19A88327C4FDC183232EF4FC72
:103E6800832744FEE1072322F4FE832744FE984378
:103E78008327C4FDF98F89C785472326F4FE19A037
:103E8800232604FE8327C4FE3E8532544561828082
:103E9800797122D60018232EA4FC232604FE0327BA
:103EA800C4FDB7070001FD17F98F2326F4FE832709
:103EB800C4FE139707014183B75700409387478192
:103EC8001347F7FF420741832390E700010032546C
:103ED80045618280011106CE22CC00102326A4FE63
:103EE8008327C4FEBDEFB717004093870704130765
:103EF80070052380E700B71700409387070413076E
:103F080080FA2380E70001000100B717004093877B
:103F1800270283C7070013F7F70FB71700409387E7
:103F280027021377F7071377F70F2380E700B717F0
:103F380000409387070283D707001397070141833F
:103F4800B7170040938707021377F79F420741830B
:103F58002390E700B71700409387070423800700E2
:103F6800C9A80100B7170040938707041307700515
:103F78002380E700B717004093870704130780FAE8
:103F88002380E70001000100B7170040938727024C
:103F980083C7070013F7F70FB71700409387270267
:103FA800136707F81377F70F2380E700B717004068
:103FB8009387070283D70700139707014183B71731
:103FC8000040938707021367074042074183239005
:103FD800E700294597C0FF1FE780E054B717004066
:103FE80093870704130770052380E700B71700407D
:103FF80093870704130780FA2380E7000100010074
:10400800B71700409387070283D707001397070164
:104018004183B717004093870702136707204207B9
:1040280041832390E700B717004093870704238054
:1040380007000100F240624405618280011122CE2E
:104048000010B7170040A10783D70700C207C18334
:1040580093F7F70F2317F4FE8357E4FE93F707044B
:1040680099EB8357E4FEFD8B3757E8011307078068
:10407800B347F70235A08357E4FE13F7070C9307FD
:104088000004631CF7008357E4FEFD8B37479C1C34
:1040980013070780B347F70221A0A167938707D0CA
:1040A8003E85724405618280011122CE0010B7F767
:1040B80000E003C687001376F60F83C5970093F5D3
:1040C800F50FA2054D8E83C5A70093F5F50FC20520
:1040D8004D8E83C5B70093F5F50FE2054D8EB28678
:1040E80003C6C7001376F60F83C5D70093F5F50FFF
:1040F800A2054D8E83C5E70093F5F50FC2054D8ED9
:1041080083C7F70093F7F70FE207D18F3E8723267F
:10411800D4FE8327C4FE3E8572440561828079718E
:1041280022D60018232EA4FC232CB4FC232AC4FC7A
:10413800232604FE91A00100B73700409387B740BB
:1041480083C7070013F7F70FA147E307F7FE832795
:1041580084FD13871700232CE4FC03870700B73777
:104168000040938787401377F70F2380E700832762
:10417800C4FE85072326F4FE0327C4FE832744FDD7
:10418800E34BF7FA832744FD3E853254456182802C
:10419800411106C622C40008B787030013850740EB
:1041A800A120B737004093872740130770F8238072
:1041B800E700B7370040938737400D472380E70073
:1041C800B737004093871740130700042380E700A0
:1041D800B73700409387E74005472380E700010091
:1041E800B240224441018280797106D622D4001857
:1041F800232EA4FCA1352A87BA878A07BA9786078F
:1042080013D737008327C4FDB357F7022326F4FEDC
:104218008327C4FE13875700A947B357F7022326FD
:10422800F4FEB73700409387C7400327C4FE420710
:1042380041832390E7000100B250225445618280F7
:10424800411106C622C4000897E6FF1F9386065947
:104258004146CD4517E5FF1F13054545EFE04027CB
:10426800AA873E85B240224441018280397106DE28
:1042780022DC8000232CB4FC232AC4FC2328D4FC91
:104288003A86BE864287AA87231FF4FCB287231E7C
:10429800F4FCB6872317F4FCBA87A306F4FCA3073B
:1042A80004FE832784FDDC4383C7070013970701B7
:1042B8004187832784FDDC43850783C70700A2075E
:1042C800C207C187D98FC207C1872316F4FE0357D7
:1042D800C4FEF5779387D75DBA971307D002636A50
:1042E800F73413972700978702009387E762BA97F6
:1042F80098439787020093872762BA978287035764
:10430800C4FD9D4763F6E7009D47A307F4FE15AE7D
:104318008357C4FD2147B307F7400357E4FC637391
:10432800F700BA87139707014183832704FD239079
:10433800E7000357C4FD938701893E97832704FD4F
:1043480083D707003E86BA85032544FD97D0FF1F13
:10435800E780A0ADFDA40357C4FDAD4763F6E700B1
:104368009D47A307F4FEF1AC8357C4FD3147B3075B
:10437800F7400357E4FC6373F700BA871397070104
:104388004183832704FD2390E7000357C4FD9787E3
:104398000200938767503E97832704FD83D7070061
:1043A8003E86BA85032544FD97D0FF1FE780E0A726
:1043B80049AC0357C4FDB14763F6E7009D47A3071F
:1043C800F4FE41A48357C4FD3547B307F7400357AC
:1043D800E4FC6373F700BA871397070141838327C7
:1043E80004FD2390E7000357C4FD978702009387D5
:1043F800A74B3E97832704FD83D707003E86BA85DF
:10440800032544FD97D0FF1FE78020A21DAC03576A
:10441800C4FDC14763F6E7009D47A307F4FE15A452
:104428008357C4FD4547B307F7400357E4FC63735C
:10443800F700BA87139707014183832704FD239068
:10444800E7000357C4FD978702009387E7463E9726
:10445800832704FD83D707003E86BA85032544FDDC
:1044680097D0FF1FE780609CE9AA0357C4FDC147A6
:1044780063F6E7009D47A307F4FEE1A28357C4FD56
:104488004547B307F7400357E4FC6373F700BA875F
:10449800139707014183832704FD2390E7000357FF
:1044A800C4FD97870200938767423E97832704FDE0
:1044B80083D707003E86BA85032544FD97D0FF1FA2
:1044C800E780A096BDAA0357C4FDC14763F6E7007D
:1044D8009D47A307F4FEB5A28357C4FD4547B3071C
:1044E800F7400357E4FC6373F700BA871397070193
:1044F8004183832704FD2390E7000357C4FD978772
:1045080002009387E73D3E97832704FD83D7070082
:104518003E86BA85032544FD97D0FF1FE780E090CB
:104528000DA20357C4FDC14763F6E7009D47A307E3
:10453800F4FE01AA8357C4FD4547B307F740035764
:10454800E4FC6373F700BA87139707014183832755
:1045580004FD2390E7000357C4FD97870200938763
:1045680067393E97832704FD83D707003E86BA85BF
:10457800032544FD97D0FF1FE780208BD9A0035760
:10458800C4FDB54763F6E7009D47A307F4FE55A8A9
:104598008357C4FD3947B307F7400357E4FC6373F7
:1045A800F700BA87139707014183832704FD2390F7
:1045B800E7000357C4FD978702009387E7343E97C7
:1045C800832704FD83D707003E86BA85032544FD6B
:1045D80097D0FF1FE7806085ADA00357C4FD9947BA
:1045E80063F6E7009D47A307F4FEA1A88357C4FD1F
:1045F8001D47B307F7400357E4FC6373F700BA8716
:10460800139707014183832704FD2390E70003578D
:10461800C4FD9387C1803E97832704FD83D7070095
:104628003E86BA85032544FD97C0FF1FE780E07FDB
:1046380009A8832704FD23900700A947A307F4FED0
:1046480001008347F4FE3E85F25062542161828066
:10465800797106D622D40018232EA4FCA30704FEE1
:104668009385C1BAC1671385F7FFEFD05071938561
:10467800C1BCC1671385F7FFEFD070709385C1BBCC
:10468800C1671385F7FFEFD0906F9385C1BDC167F0
:104698001385F7FFEFD0B06E1715000013052592AC
:1046A800EF0001128327C4FD858B8DC397E6FF1F9A
:1046B8009386C63E41469305000217E5FF1F130582
:1046C800E51DEFD0F060AA87A307F4FE8347F4FE48
:1046D8003E85B250225445618280011122CE0010DD
:1046E8002326A4FE8327C4FE81CB938781890327D1
:1046F800C4FE98C3814711A0C5473E857244056131
:104708008280797106D622D40018AA872E87232C96
:10471800C4FCA30FF4FCBA87230FF4FCA30704FE20
:104728008347F4FD21476362F71C13972700978797
:1047380002009387E729BA979843978702009387DF
:104748002729BA9782870347E4FD8547631CF7004A
:104758000546832584FD1385C18997C0FF1FE7801F
:10476800C06C41AAE147A307F4FE61A20347E4FD38
:104778008547631CF7000546832584FD1385018A58
:1047880097C0FF1FE780606AADA2E147A307F4FE68
:104798008DA20347E4FD8547631CF7000546832582
:1047A80084FD1385418A97C0FF1FE780006891A2A6
:1047B800E147A307F4FE35AA0347E4FD8547631CD8
:1047C800F7000546832584FD1385818A97C0FF1F5E
:1047D800E780A06539AAE147A307F4FE19AA0347B1
:1047E800E4FD9547631CF7001546832584FD138572
:1047F800C18A97C0FF1FE7804063E5A8E147A30788
:10480800F4FEC5A80347E4FDA14763E9E70283472F
:10481800E4FD3E86832584FD1385418B97C0FF1FE9
:10482800E780A0608347E4FDBE86032684FD938568
:10483800418B1385C1BCEF00207E65A8E147A30723
:10484800F4FE45A80347E4FDC14763E9E70283474F
:10485800E4FD3E86832584FD1385019E97C0FF1FD6
:10486800E780A05C8347E4FDBE86032684FD93852C
:10487800019E1385C1BBEF00207AA5A8E147A307D5
:10488800F4FE85A80347E4FD8547631CF700054649
:10489800832584FD1385C18B97C0FF1FE780E058EF
:1048A80089A8E147A307F4FEA9A00347E4FD9307FD
:1048B800000463E8E7028347E4FD3E86832584FD20
:1048C8001385019F97C0FF1FE78020568347E4FDAB
:1048D800BE86032684FD9385019F1385C1BD2D2FB8
:1048E80009A8E147A307F4FE29A08947A307F4FE16
:1048F80001008347F4FE3E85B25022544561828010
:10490800797106D622D40018AA87232CB4FCA30FE9
:10491800F4FCA30704FE8347F4FD2147636BF70CFF
:1049280013972700978702009387C70CBA97984375
:10493800978702009387070CBA9782870546938565
:10494800C189032584FD97C0FF1FE780004E75A02D
:1049580005469385018A032584FD97C0FF1FE780DC
:10496800C04C61A805469385418A032584FD97C0FC
:10497800FF1FE780804B51A005469385818A032558
:1049880084FD97C0FF1FE780404A85A81546938598
:10499800C18A032584FD97C0FF1FE7800049B1A89D
:1049A80021469385418B032584FD97C0FF1FE7802F
:1049B800C047A1A041469385019E032584FD97C069
:1049C800FF1FE780804615A805469385C18B032500
:1049D80084FD97C0FF1FE780404505A0130600042B
:1049E8009385019F032584FD97C0FF1FE780E0435F
:1049F80029A08947A307F4FE01008347F4FE3E85FA
:104A0800B250225445618280397106DE22DC800072
:104A1800232CB4FC232AC4FC2328D4FC3A86BE8663
:104A28004287AA87231FF4FCB287231EF4FCB687AB
:104A38002317F4FCBA87A306F4FCA30704FE832714
:104A480084FD83C78700C18B99C3A14791A483576D
:104A5800C4FD99C3AD472DAC832784FD03C7070068
:104A68008947631EF720832784FDDC4383C707003B
:104A7800139707014187832784FDDC43850783C794
:104A88000700A207C207C187D98FC207C1872316AB
:104A9800F4FE0357C4FEC1779387F73FBA972147BF
:104AA8006366F71C13972700978702009387C7F65A
:104AB800BA97984397870200938707F6BA97828731
:104AC8000357E4FC854763F8E700832704FD05479F
:104AD8002390E70039A0832704FD0357E4FC2390C3
:104AE800E700832784FDD847832704FD83D7070081
:104AF8003E86BA85032544FD97C0FF1FE780E03254
:104B080071A20357E4FC854763F8E700832704FD97
:104B180005472390E70039A0832704FD0357E4FCE9
:104B28002390E700832784FDD847832704FD83D794
:104B380007003E86BA85032544FD97C0FF1FE7801E
:104B4800C02EA9A20357E4FC854763F8E700832732
:104B580004FD05472390E70039A0832704FD035788
:104B6800E4FC2390E700832784FDD847832704FDCE
:104B780083D707003E86BA85032544FD97C0FF1FEB
:104B8800E780A02A21A20357E4FC954763F8E700D1
:104B9800832704FD15472390E70039A0832704FDE8
:104BA8000357E4FC2390E700832784FDD847832735
:104BB80004FD83D707003E86BA85032544FD97C0C8
:104BC800FF1FE7808026D9A0832704FD2147239073
:104BD800E700832784FDDC472146BE85032544FD85
:104BE80097C0FF1FE780602455A0832704FD414735
:104BF8002390E700832784FDDC474146BE850325D3
:104C080044FD97C0FF1FE780402249A0832704FD89
:104C180005472390E700832784FDDC470546BE85CA
:104C2800032544FD97C0FF1FE780202085A0832728
:104C380084FDDC4783C70700A305F4FE8347B4FE61
:104C4800139707014183832704FD2390E7008327F7
:104C580084FDDC4785070347B4FE3A86BE850325F5
:104C680044FD97C0FF1FE780401C0DA0832704FD6B
:104C780023900700A947A307F4FE010001A8832792
:104C880004FD239007008547A307F4FE8347F4FE3D
:104C98003E85F250625421618280797106D622D411
:104CA8000018232CB4FC232AC4FC3686BA863E8717
:104CB800AA87231FF4FCB287231EF4FCB6872319A6
:104CC800F4FCBA87A308F4FCA30704FEFD572307E6
:104CD800F4FE832784FD83C7870093F7070299C3EF
:104CE800A147F9A4832784FD03C707008947631BED
:104CF800F724832784FDDC4383C707001397070144
:104D08004187832784FDDC43850783C70700A20703
:104D1800C207C187D98FC207C1872316F4FE8357FC
:104D2800C4FE4167130767C0638AE70C416713072E
:104D380067C06342F7024167130717C0638DE70234
:104D48004167130737C06389E7060D671307279084
:104D58006384E71CDDA24167130787C06387E712F6
:104D68004167130787C063CFE70C4167130797C0F4
:104D78006380E716D9A2835724FD91EB0357C4FD3E
:104D8800854763F9E700B547A307F4FE21A0AD47BF
:104D9800A307F4FE8347F4FE639A071A832784FD6A
:104DA800DC470546832544FD3E8597C0FF1FE78005
:104DB800C007230704FE59AA835724FD91EB035724
:104DC800C4FD854763F9E700B547A307F4FE21A0B2
:104DD800AD47A307F4FE8347F4FE639B07168327BA
:104DE80084FDDC470546832544FD3E8597C0FF1FAB
:104DF800E780A00389472307F4FE99AA835724FD77
:104E080091EB0357C4FDA14763F9E700B547A30732
:104E1800F4FE21A0AD47A307F4FE8347F4FE639B8D
:104E28000712832784FDDC470357C4FD3A86832590
:104E380044FD3E8597C0FF1FE78020FF9547230765
:104E4800F4FE09AA835724FD91EB0357C4FDC1471B
:104E580063F9E700B547A307F4FE21A0AD47A30710
:104E6800F4FE8347F4FEEDEB832784FDDC4703570C
:104E7800C4FD3A86832544FD3E8597C0FF1FE78021
:104E8800C0FA99472307F4FEC1A8835724FD91EB84
:104E98000357C4FD854763F9E700B547A307F4FE48
:104EA80021A0AD47A307F4FE8347F4FEC5EB832793
:104EB80084FDDC470357C4FD3A86832544FD3E85BF
:104EC80097C0FF1FE78060F69D472307F4FE79A08F
:104ED800835724FD99EB0357C4FD9307000463F936
:104EE800E700B547A307F4FE21A0AD47A307F4FEEA
:104EF8008347F4FEB5E7832784FDDC470357C4FDE9
:104F08003A86832544FD3E8597C0FF1FE780E0F180
:104F1800A1472307F4FEA9A0035724FD8356C4FD27
:104F28000355E4FD8547032644FD832584FDEFB042
:104F3800F022AA87A307F4FE2DA0A947A307F4FE31
:104F4800010005A08547A307F4FE21A8010011A8C8
:104F5800010001A8010031A0010021A0010011A059
:104F680001000347E4FE9307F00F6301F7049387FA
:104F780081899C4385CF938781899C439C439DC7A6
:104F88008347E4FEBE851775020013052514EF500C
:104F98009220938781899C4394430357C4FD834798
:104FA800E4FE3A86832544FD3E8582968347F4FED7
:104FB8003E85B250225445618280011106CE22CC32
:104FC8000010AA872E872317F4FEBA87A306F4FEDB
:104FD8000357E4FEC167F917630BF7020347D4FED2
:104FE8008547630FF7000347D4FE89476311F7022B
:104FF8008357E4FE85453E85EFF05005AA8781EB8F
:105008008357E4FE9385C1BA3E85EFD0405701002F
:10501800F240624405618280397106DE22DC80003C
:105028002326A4FC2324B4FC2322C4FCB687A301B2
:10503800F4FC9387C1D083D707002316F4FEC94731
:10504800A307F4FE834734FCC207C183231FF4FC83
:10505800834734FC1396070141829306A4FD8357C6
:10506800C4FE0147ED453E85EFB0C044AA87232022
:10507800F4FE832704FEC1CF832704FE0357E4FD13
:105088003A86832544FC3E8597C0FF1FE780E0D918
:105098008357C4FE8325C4FC3E85EFB0F006AA877B
:1050A8002315F4FE8357A4FE858BA9CB979702009E
:1050B8009387C7F283C70700C207C183032684FC0E
:1050C800BE8517D5FF1F1305657DEFB0300223227B
:1050D800A4FE832744FE9DC3832744FE83D7A700ED
:1050E800231EF4FC1307C4FD8357C4FE0146BA858A
:1050F8003E85EFC0A05EAA87A307F4FE8347F4FEAF
:1051080099C79307C4FDED453E85EFB06052010095
:10511800F250625421618280011122CE00102326B0
:10512800A4FE8327C4FEFD8B0547B316F70037E7B7
:1051380000E08327C4FE9583938707048A07BA97FC
:1051480094C30100724405618280011122CE0010CF
:105158002326A4FE8327C4FEFD8B0547B316F7005C
:1051680037E700E08327C4FE9583938707068A07FD
:10517800BA9794C30100010001007244056182805E
:10518800011106CE22CC00102324A4FE2326B4FE4F
:10519800B7F700E0832684FE0327C4FE7D58FD5838
:1051A800B38506012E853335D5003306170133073D
:1051B800C5003A86AE86328713F5F60F03C6070197
:1051C800018AB2852A864D8E2388C70013D68600A9
:1051D8001375F60F03C61701018AB2852A864D8E0C
:1051E800A388C70013D606011375F60F03C6270157
:1051F800018AB2852A864D8E2389C70013D5860178
:1052080003C63701018AB2852A864D8EA389C70055
:105218001375F70F03C64701018AB2852A864D8E9A
:10522800238AC700135687001375F60F03C6570164
:10523800018AB2852A864D8EA38AC70013560701B4
:105248001375F60F03C66701018AB2852A864D8E4B
:10525800238BC7001356870103C77701018BBA86D2
:105268003287558FA38BE70031457D35B7F700E0CE
:1052780003C70700018B1367F7022380E70003C702
:105288001700018BA380E70003C72700018B238148
:10529800E70003C73700018BA381E70081473E85FC
:1052A800F240624405618280411106C622C40008AA
:1052B8001145EFD06FFD0100B240224441018280C8
:1052C800011106CE22CC00102326A4FE2324B4FE0E
:1052D8002322C4FE832784FE8A07BE86032644FE53
:1052E8008325C4FE2D4597B0FF1FE780607D814769
:1052F8003E85F240624405618280011106CE22CCCF
:1053080000102326A4FE2324B4FE2322C4FE8327F0
:1053180084FE8A07BE8601468325C4FE254597B0CC
:10532800FF1FE780E079832784FE8A07BE8603266D
:1053380044FE8325C4FE294597B0FF1FE7804078C7
:1053480081473E85F2406244056182801D7186CEA8
:10535800A2CC8010494697750200938565D81785B9
:1053680002001305E57597C0FF1FE78000B5AA87FF
:1053780081EB177502001305E5D7EF50627301A0A2
:105388007D55FD55F53B3145C933930704FB13069D
:10539800C00381453E8597C0FF1FE78080AC97E733
:1053A800FF1F938767DD2328F4FA896793870780AF
:1053B800231AF4FA930700082310F4FC9547A30F67
:1053C800F4FA85472301F4FCB5472302F4FCA167EE
:1053D800938707E0232CF4FA97070000938787EE5A
:1053E8002322F4FE97070000938767F12324F4FE35
:1053F80085472303F4FCB547A303F4FC97F7FFFFA5
:105408009387C7CA2328F4FC9707000093872719B6
:10541800232CF4FC97070000938747E9232EF4FC1C
:10542800930784FA81463E86B7F70700938587017C
:10543800194597B0FF1FE780A068A30704FE25A0C1
:105448000347F4FE8347F4FE930604FF36970347A9
:1054580087FB930604FFB697238DE7FC8347F4FE8A
:105468008507A307F4FE0347F4FE9547E3FAE7FC34
:10547800832704FB91C7035744FB85676373F700D1
:1054880001A0930704FB3E85EF602055AA87A30778
:10549800F4FE8347F4FE99CB8347F4FEBE85177567
:1054A8000200130565C6EF50024F01A00100F64047
:1054B800664425618280797106D622D40018AA87AD
:1054C8002E87A30FF4FCBA87231EF4FC8317C4FDB0
:1054D80063D707028347F4FD3E85EF5090312326BA
:1054E800A4FE8327C4FE89C70325C4FEEF505029B4
:1054F8000357C4FDE177B98FC207C18381A88357D9
:10550800C4FD858B81CB8357C4FD93C71700C207A1
:10551800C1832DA80357C4FD8567F98F9DC7EFA0E8
:10552800710C59339387C1BE03C70700B7F7020050
:10553800138607E085653A85EF6000060357C4FDCA
:105548008567B98FC207C18311A081473E85B250D4
:10555800225445618280411106C622C400081705FD
:105568000000130585F5EF608043AA873E8793877F
:10557800C1BE2380E70021229387C1BE03C707006D
:10558800B7F70200138607E085653A85EF60C0002B
:105598000100B240224441018280011106CE22CC92
:1055A8000010B71700409387770583C70700A30744
:1055B800F4FEB71700409387B70583C70700230792
:1055C800F4FEB71700409387870583C70700A30633
:1055D800F4FEB71700409387970583C70700230693
:1055E800F4FEEFD0AFBFB71700409387A70583C776
:1055F800070013F7F70FB71700409387A70513673E
:1056080017001377F70F2380E7000100B717004052
:105618009387A70583C7070093F7F70F858BFDF7D7
:10562800B71700409387C70583D707002315F4FEF3
:10563800B71700409387B7050347E4FE2380E700C8
:10564800B7170040938787050347D4FE2380E700F8
:10565800B7170040938797050347C4FE2380E700E8
:10566800B7170040938777050347F4FE2380E700C8
:105678008357A4FE3E85F240624405618280411151
:1056880006C622C40008B71700409387070413070B
:1056980070052380E700B7170040938707041307B6
:1056A80080FA2380E70001000100B71700409387C4
:1056B800F70283C7070013F7F70FB7170040938760
:1056C800F702699B1377F70F2380E700B7170040AD
:1056D8009387F70283C7070013F7F70FB717004040
:1056E8009387F702136727001377F70F2380E700E4
:1056F800B717004093870704238007007536814752
:1057080001478146054685451305407EEFD03F9FFA
:105718000145EF60605E0100B24022444101828091
:10572800411106C622C40008EF10D00E0100B24095
:10573800224441018280411106C622C40008CD37A7
:105748000100B240224441018280011106CE22CCE0
:105758000010938741CA2326F4FE8327C4FE03D78B
:10576800C700938781C72392E700938781C783D7B0
:105778004700139707014187938781C72393E70061
:105788008327C4FE9843938781C798C39387C1C86A
:10579800238407009387C1C87D57D8C3938781C7DF
:1057A8007D57A384E700AD3F0100F24062440561E4
:1057B8008280011106CE22CC0010938741CA23268D
:1057C800F4FE938781C783C7970013070003638D8F
:1057D800E71813070003634CF70213070002638EF0
:1057E800E70A130700026347F700A5C3414763852B
:1057F800E7363DAE13072002638EE70E130720023B
:1058080063C4E70A130730026383E71215A6130778
:1058180000066387E72213070006634BF7001307A8
:105828000004638CE716130700056385E71C09A6C7
:105838001307000E638EE7261307F00F638EE72A1F
:10584800130700076383E724E5A48327C4FE03D76F
:10585800C700938781C72392E700938781C783D7BF
:105868004700139707014187938781C72393E70070
:105878008327C4FE9843938781C798C39387C1C879
:10588800238407009387C1C87D57D8C3938781C7EE
:105898004147A384E7006935C9AC938781C71307DB
:1058A8001002A384E700D1A4938781C903D7C70155
:1058B8009387A1CC83D7070063F0E702130540065E
:1058C800EF10C02E0145EF10E034938781C713070E
:1058D8002002A384E70051AC0145EF10202D1305E9
:1058E8004006EF102033938781C713073002A38443
:1058F800E700A5AC938781C903D7C7019387A1CCDB
:1059080083D7070063FAE70013054006EF10002A63
:105918000145EF10203091AC0145EF102029938705
:1059280081C713070003A384E700DD3B3DAC9387E1
:1059380081C903D7C7019387A1CC83D70700637AAE
:10594800F7000145EF10802613054006EF10802C64
:1059580029AC0145EF10002C938781C7130700037A
:10596800A384E700753B11A48327C4FE984393875B
:1059780081C798C39387C1C823840700938781C7C9
:105988009C433E879387C1C8D8C3938781C71307B1
:105998000004A384E7006933C9AA9387C1C883C7F1
:1059A8008700638D071A8327C4FE83D7A70085CF96
:1059B8009387C1C8238407000545EF10A0258327D6
:1059C800C4FE83D7A7003E87938781C798C3938770
:1059D800C1C823840700938781C79C433E87938768
:1059E800C1C8D8C3353B938781C713070005A38473
:1059F800E700ADA29387C1C883C7870063820716F3
:105A08000145EF1020218327C4FEDC439DC3938703
:105A1800C1C8238407008327C4FED843938781C75E
:105A280098C3938781C79C433E879387C1C8D8C3CF
:105A3800C539938781C713070006A384E7000DA221
:105A48009387C1C883C78700638E07109387C1C82F
:105A58002384070013054006EF1040158327C4FE72
:105A680083D787003E87938781C798C3938781C769
:105A78009C433E879387C1C8D8C3938781C71307C0
:105A88000007A384E7006939F1A89387C1C883C7D1
:105A98008700638B070C9387C1C8238407000145DF
:105AA800EF10C010938781C70157A384E7006DA842
:105AB800938781C783976700C207C183FD17C20711
:105AC800C183139707014187938781C72393E70011
:105AD800938781C7839767006348F000938781C7DE
