:040000006F204035F8
:1000040000000000000000009000002072020020A8
:10001400A9BDF9F5940000200000000000000000D4
:10002400960000209800002000000000000000005E
:10003400F802002000000000C003002000000000BF
:100044009E000020A000002016060020A40000202E
:10005400A6000020A8000020AA000020AC00002078
:10006400AE000020B0000020B2000020B400002048
:10007400E2020020B8000020BA000020BC000020EA
:10008400BE000020C0000020C2000020C4000020E8
:1000940001A001A001A001A001A001A001A001A054
:1000A40001A001A001A001A001A001A001A001A044
:1000B40001A001A001A001A001A001A001A001A034
:1000C40001A001A001A0B71700409306700523808A
:1000D400D704130780FA2380E7040100010003C654
:1000E400B7041376F60DA385C7042380070413769B
:1000F400050259CE03C6A700118A1DE22380D70446
:100104002380E7040100010003C7A7001367470029
:100114002385E7009307004B01000100FD17EDFF65
:10012400B7170040930670052380D704130780FA9D
:100134002380E704010001007D892394A7000100C6
:10014400010001000100238007042380D7042380D9
:10015400E704010001003727004093061005A303BC
:10016400D78023800704B717004013077005238046
:10017400E704130780FA2380E7040100010003C7A2
:10018400B70413670708A385E70423800704828064
:100194001376050441C603C6A700418A1DE22380E5
:1001A400D7042380E7040100010003C7A7001367F5
:1001B40007012385E7009307007D01000100FD1777
:1001C400EDFFB7170040930670052380D70413078B
:1001D40080FA2380E704010001001376F501136619
:1001E40006042394C70001000100010001002380DC
:1001F40007042380D704130660042380E7046318EC
:10020400C5000100010037270040894689BF01006D
:100214000100372700409306200591B72380D704B7
:100224002380E7040100010003D787001367070C4C
:100234002394E7000DBF41118146014681451145D4
:1002440006C60523B7170040130770052380E7048B
:10025400130780FA2380E7040100010003C7670441
:10026400136717002383E70423800704B240410186
:1002740082808146014681451145E521B71700403A
:10028400130770052380E704130780FA2380E7042B
:10029400010001007D572396E70203C76704136733
:1002A40017002383E7042380070401A0BD47330517
:1002B400F50201007D1575FD8280411122C426C21C
:1002C40006C6AA84014463179400B24022449244AF
:1002D4004101828005041305803E4204C13F4180F0
:1002E400DDB7B7170040130700032388E7028547EB
:1002F40023ACF1C273002030411106C6052A11C592
:10030400B7E700E0116723A0E72037F700E05C437C
:10031400B240F99B5CC341018280737004300100D8
:100324000100010082807360043082801375F50738
:1003340093172500138501873E9503230500630366
:10034400030002838280000073100134174102E02D
:100354000321017373252034EFF05FFD7321003412
:1003640073002030B7220000938202887390023019
:1003740003A34192032103008242739012349240FA
:10038400A2423243C2435244E24472458255125659
:10039400A2563257C2575258E25872598649164AE1
:1003A400A64A364BC64B564CE64C764D865D165ED9
:1003B400A65E365FC65F130141077300203001005B
:1003C4001301C1F806C216C41AC61EC822CA26CC16
:1003D4002ACE2ED032D236D43AD63ED842DA46DCB1
:1003E4004ADECEC0D2C2D6C4DAC6DEC8E2CAE6CC81
:1003F400EACEEED0F2D2F6D4FAD6FED883A2419257
:1004040023A02200F32510342EC0EF002018B722B9
:10041400000093820280739002309702000093825E
:10042400A2F4739012347300203000009387019378
:100434009C436395071441119387419422C48043DC
:1004440006C6050423A2819429EC938781929843DC
:10045400184315C77370043001000100010085655D
:10046400174602E01306C6C7938575AC174502E02C
:10047400130545C8973002E0E780608B01A013871D
:10048400C1929C43184323A4E19223A6F19293873B
:10049400C1939C43850723AEF192973000E0E78037
:1004A400200F938781939C430145637BF4009387DA
:1004B40081949C4391C30545B2402244410182800A
:1004C4001388819293884193138381A7514E938E0D
:1004D4004192832708009C4389E7FD5723ACF1929E
:1004E400F9B783270800DC47DC47D8436375E40089
:1004F40023ACE1926DBF9047D447D84B9385470016
:1005040014C6D0C250436313B60054C3144323AA81
:100514000700FD1614C3985715C3D44F9053032FE7
:10052400470090C6905354C2938687016313DF003B
:1005340050C3144323A40702FD1614C3D45703A7BE
:1005440008006374D70023AAD1923387C6031A978D
:100554005043032F860090C723A6E701032F86008C
:100564002322BF000CC6D8CB1C4385071CC383A71A
:100574000E00DC57E3EFF6F40545A1BF9387019421
:100584009C430145850723A0F194828093870193BE
:100594009C4389C7854723A4F194828023A40194B2
:1005A400938741939C43138781A75148BA85338627
:1005B4000703B306C70088420DC5C8422106329717
:1005C4004841C8C26314E5005841D8C25147338733
:1005D400E7022E975843584723A2E19223AAF192A7
:1005E400828085EB411106C673700430010001005E
:1005F40001008565174602E0130686AE938525C083
:10060400174502E0130505AF972002E0E78020724A
:1006140001A0FD1769BFB717004013070010239FFF
:10062400E70873002030011126CAFD7422CC4AC8A1
:100634004EC606CE371400401169FD148569D12DCC
:100644008327440AB3F727012322F40A9DCF832783
:10065400840AB3E737012324F40A8327440C898BE3
:100664002322F40C9DC78327840C93F7F7F72324E4
:10067400F40C8327440C858B2322F40C85C3832735
:10068400840CBD9B2324F40C5DBF8327840AE58F6F
:10069400D9B78327840C93E70708D1BF8327840C39
:1006A40093E70701C5B72303048015472303E480B8
:1006B40001002302A480828083076480E3CE07FEC6
:1006C40023030480828083076480E3CE07FE03450E
:1006D4004480828083076480E3CE07FE2302A480E3
:1006E4008280411126C44AC24EC006C61377F50B58
:1006F400AD47AA892E8995446306F70019456537E5
:10070400653F8D444E854537FD59FD14639834018A
:10071400B240A24412498249410182801355090121
:100724001375F50F453F2209CDB7011126CC06CE2E
:10073400B704080051371545BD37713769372AC6E4
:10074400A53F32459377150089EB136515001375A2
:10075400F50FF240E24405618280FD14E9FC014595
:10076400CDBF397126DC4ADA4ED852D656D45AD285
:100774005ED006DE62CE66CCB7E700E07D5783AA82
:10078400070022C603AA470023A0E71823A2E718FC
:10079400B7170040130770052380E704130780FA96
:1007A4002380E70483C74704930B75FFB684E207ED
:1007B40093FBFB0F8546AA892E8B32893724004090
:1007C400E187015763FA76016308D5008946130768
:1007D40000026313D5000157D98F93F7F70FB71CA5
:1007E40000402382FC0411472303E4801305F00F27
:1007F4005D3D094CD135636D7C11B7050700DA9571
:1008040037870700795563F2E504B3879500636E73
:10081400F702370B0800A94733EB65016399F90622
:1008240089E48144513D26850DA0DA850945553D6D
:1008340005090345F9FFFD14050B693D81C4937750
:10084400FB0FFDF7DD3569FD7D55B7170040130734
:1008540070052380E704130780FA2380E70403C7A5
:100864004704418B2382E704F250B7E700E023A05A
:10087400571123A24711E25432445259C259325AF1
:10088400A25A125B825B724CE24C21618280A547C2
:100894006395F90685691309F00FB3069900B374DB
:1008A4002B01B6941349F9FFB3749900856B33791E
:1008B4006901416B9387F9FFB3F7270199E363FC5F
:1008C400340193D94900C147E3E637FF99BF05696D
:1008D400C1697D19D9B71305800D638869011305B2
:1008E40000026384790113051008CA85DD3B353D98
:1008F40021DD4E99B3843441D9B7DA852D45D533FA
:10090400CA94E30099F205097D3BA30FA9FED5BF64
:100914009387F9FF93F7F70F6361FC0C83C71C04FB
:1009240013073008631FF70437070800636BEB04F1
:10093400B3079B00B706100063F5D704334BEB00F5
:1009440089476393F9068980D549E38C04ECDA85F9
:100954000945413B11090327C9FF91472320E4803E
:1009640003076480E34E07FE23033481FD17EDFB88
:10097400FD14110B81C49377FB0FE9FF7D3371F5EF
:10098400E1B5B717004003C75704B707080013774A
:10099400070219E3B78707007955E378FBEA3307C1
:1009A4009B00E3FFE7F855B58547E382F9F2DA8562
:1009B4002D45053B9389F4FFE38504E6293393F73A
:1009C400390091EB8326048003270900930749002B
:1009D400E39AE6E43E89CE84F1BFB5476396F90015
:1009E4001305900BC93135BDB1471305B00AE38B2C
:1009F400F9FE99476391F904B7050800B365BB0094
:100A04002D45C53181448D4BA149753963967401D7
:100A1400832704802320F9008504E39834FF832787
:100A2400048013172B01635507002312F900D5BB6B
:100A34002322F900FDB39D476399F902814513050B
:100A4400B0044531BD442320090023220900FD5987
:100A54009D3993F77400CA9703C70700FD14398DB5
:100A64002380A700E39634FF6DBBA1476392F9048A
:100A74006D398144630D0B008D479304C0036308F3
:100A8400FB009304000563048B0193044004137575
:100A9400C507E30895D81945393139390545213158
:100AA40026850D3909453D314931E31C05D669BB1D
:100AB40091476399F90013056006F536F53E130571
:100AC40090090DB7E38F09D4F154A9BB19CD91CD89
:100AD40009CE81473387F500834607003307F500C5
:100AE40085072300D700E397C7FE828019C991C9FF
:100AF40009CA910583A7C5FF11057D16232EF5FEAE
:100B0400C5BF828001C919C62A960505A30FB5FE83
:100B1400E31DA6FE828081473307F5000307070023
:100B240019E33E8582808507C5BF01112E8626CA3A
:100B3400AA84131506019305F004418122CC06CE44
:100B440032C6EF10A0572A8401C53246A685BD3FA0
:100B54002285F2406244D24405618280854715C1F2
:100B64008DC105C28147B306F5003387F50083C6FE
:100B74000600034707006398E6008507E315F6FEC1
:100B840085473E8582808147EDBF9307F6FFBE957A
:100B94002A966313C5008280FD1583C715000505D9
:100BA400A30FF5FEFDB7AA87014581CF09CE3E9676
:100BB400850703C7F7FF6317B700E31BF6FE054578
:100BC40082808280014582807971974700009387F3
:100BD400678A22D4804306D626D24AD04ECE52CC3F
:100BE40056CA5AC85EC662C45DCC37C9C901814BB6
:100BF400174A0000130A8A8C974400009384C48720
:100C04001309F937974A0000938A8A81B709C0A863
:100C1400370B40578357240095E35C44639D0B00D6
:100C2400174700002328F784032CC4002285EF1003
:100C34000056628499A823A6FB00FDB783270A0007
:100C44008297838664011C4463DB06063307F54000
:100C54006367E9089737000023AC077C83552400B9
:100C640003450400974000E0E78000A45C4058443A
:100C7400A9CF1444B6978386640163C5060063E371
:100C84003701DA971CC4A28B3A8449F497370000E1
:100C9400938707799C4B09476378F706F917173749
:100CA40000002327F778B250225492540259F24993
:100CB400624AD24A424BB24B224C45618280E3776E
:100CC400F5F83387F9402A9761B763970B00973794
:100CD400000023A1E77A89BF23A6EB00B1B7D8505F
:100CE40009CF63DF06003385A74083A70A01637633
:100CF400F5009737000023ADA772A28B404471B76B
:100D0400E3F3A7FECE97C5B79737000023A2077277
:100D140059BF411122C417340000130464731C40EA
:100D240006C626C24AC091C782979737000023A1FE
:100D340007725C4091C382971C406391071C9747DC
:100D4400000083C7F78C858B9DC797470000A3815C
:100D5400078C174700000347D78B914763FDE700D3
:100D6400EF00B0359747000083C7B78AF9178A07A1
:100D7400A2979C438297174900001309298D834742
:100D8400C900918B99C3EF10C0261C4491C382976C
:100D9400973400009384C46D9840173600000346CE
:100DA40036689737000083C7A76793961700BA96EB
:100DB40083D60600D5CA9737000083C7676663EFFA
:100DC400C70A97370000238D07641C4063980712F5
:100DD4009747000083C7178491CF9747000083C7C4
:100DE400578389EB97470000A3860782978001E029
:100DF400E780C0E8973700009387476C9C43638F74
:100E0400070EB707C0A8173700002323F7626D3B0E
:100E14009737000093874766DC53EDC3173700000C
:100E240013070760184B9737000083C7376663675B
:100E3400F70C173700000347D77D914763E0E70CB1
:100E44008347C900918BDDEB90409736000083C641
:100E5400365D63CBD70A2244B24092440249410131
:100E6400173300E067006361850793F7F70F973640
:100E740000002387F65AE3E6C7F235BF86073E979C
:100E84008355070023100700973700002390075E5F
:100E9400973700009387875B9C4317350000034511
:100EA400255813172500BA979C438297973700005B
:100EB40083D7C75B173700000347875693C7F7FFED
:100EC4007D8D9317170098403E97835707005D8DDB
:100ED4002310A7009737000083C7875491C785075D
:100EE40017370000230EF752173700000347475304
:100EF4009737000083C7D752E375F7ECB24022441A
:100F04009244024941018280139717003297035794
:100F140007006DF7850735BFAD6737C70040BD07CC
:100F24002326F7200F100000973700009387474FC0
:100F3400C84F83278726BD66BD0693C7F7FF9983ED
:100F44006A052326D7205D8D82804111B7170040A2
:100F5400985F3AC6945F3247E39CE6FE324541010E
:100F6400828082800327851163000712411122C405
:100F740006C68347C5008345C5042A8493F7C70F73
:100F84002306F500834697000356C7001395860190
:100F9400618563F1C508635A05060345870093F626
:100FA400F607A304D700054693E627006314C5009B
:100FB40093E617002306D4005C4389075CC3A30AA5
:100FC400B400032504112E864C43090501368327FA
:100FD400841103465401D44303D7C700B296118F3A
:100FE400D4C32396E7008947A30DF40003474403C1
:100FF4009737000083C767496378F7048347C400C1
:1010040093E707012306F40081A093E71700230662
:10101400F40075B79376F60F635D05020345870008
:10102400854513E627006314B50013E6170023066D
:10103400C400A30AD400A30407008547A30DF40049
:10104400832784119C43DDF3B240224401454101CE
:10105400828093E717002306F400A30AD400A304B4
:101064000700032504114C4309058D34832784119B
:1010740003465401D44303D7C700B296118FD4C397
:101084002396E7008D475DBF0545828097370000B2
:101094009387C7569C43411122C406C6858B2A8474
:1010A400C5EF4165130525F5972001E0E78020028F
:1010B40045C58347A5002315F50083270412BDE722
:1010C4002320A4122322A41285472310F4042320EE
:1010D40005008347640154412316F5000347D400F7
:1010E4002304E5000547A304E500173700001307B0
:1010F400E751184F1385170215811C437D1513758D
:10110400F50F9CC25C43DCC21C479CC65C47DCC632
:101114001C4B9CCA5C4BDCCA1C4F9CCE5C4FDCCE87
:1011240019CD9386060213070702C1BF8327441211
:1011340088C3835704042322A412850779B79737F9
:10114400000083D727598507173700002314F75861
:10115400B2402244410182808347C4002309040031
:10116400054593C747002306F400DDB7834785018F
:1011740093F7E70FCDEB83479501D5E703462501A8
:101184008346C50009CA8345450317370000034752
:10119400D72F63E7E50013F7060159C7014709C6CE
:1011A400C18A0357851B81C68356C51B36972DCF2D
:1011B400B7470F009736000083D606299387072484
:1011C400B3C7D7021307C712411126C222C406C6E9
:1011D4007D543357F7029737000083C7772BB384C6
:1011E400E700973700009387674E83A6C70883A755
:1011F400060963F387003E849442F5FA97370000AA
:101204009387C72B9C43829781476364A400B307E9
:10121400A440B2402244B3B7970093C71700924446
:101224003E854101828081473E858280797126D244
:1012340006D622D44AD04ECE52CC56CA5AC85EC61E
:101244008347350303447513AA843E941374F40F3F
:101254009307400263F687001304B4FD1374F40F7C
:1012640003AA841383AAC413A38B841222865285EF
:10127400D685972002E0E780A09A058915E503CB7F
:10128400D41201498149337B6403930B50024A868B
:101294005285D685972002E0E7808098058915C598
:1012A400639169031374F90F238B8412B25022548F
:1012B40092540259F249624AD24A424BB24B4561B6
:1012C40082808509E20993D989410509E31179FDF1
:1012D400E1BF832785090356E503797193D6070196
:1012E400BD8EC206C182358E135776409357564041
:1012F400898B058B5D8F93573640918B5D8F935708
:101304001640A18B5D8F93171600C18B5D8F9317C9
:10131400360093F707025D8F9317560093558600A6
:1013240093F707041E065D8F1376F60F518F93D73C
:10133400554013D63540118A898BD18F13D6754009
:10134400D18F13D61540218AD18F13961500418A67
:10135400D18F1396350013760602D18F139655005C
:10136400137606049E05D18F93F5F50FCD8FA20752
:1013740045465D8F3307C70222D42A8426D252CC35
:1013840056CA032A8413832AC4135AC806D6369726
:101394004207418393577740135557400989858BFA
:1013A400C98F135537401189C98F135517402189A7
:1013B400C98F131517004189C98F13153700137589
:1013C4000502C98F1315570093558700137505043B
:1013D4001E07C98F1377F70FD98F13D5354013D74D
:1013E40055401189098B498F13D57540498F13D501
:1013F40015402189498F139515004189498F13950B
:10140400350013750502498F1395550013750504AE
:101414009E05498F93F5F50F4D8F2207D98FB3871A
:10142400C7024AD04ECE5EC662C4B697C207C18315
:1014340013D7774013D557400989058B498F13D5A6
:1014440037401189498F13D517402189498F139546
:1014540017004189498F1395370013750502498F89
:101464001395570093D58700137505049E07498F7C
:1014740093F7F70FD98F13D5354013D755401189FA
:10148400098B498F13D57540498F13D51540218990
:10149400498F139515004189498F139535001375AC
:1014A4000502498F13955500137505049E05498F50
:1014B40093F5F50F4D8F2207D98FB387C702130613
:1014C40050025285D685B697BD8E93940601C1808D
:1014D40033F6C402137BF60F971002E0E7804074E2
:1014E40005890DED8347D41201498149B3849702DC
:1014F400130C5002C1804A865285D685971002E0AB
:10150400E78000720589937BF90F11C56386340364
:10151400850993F9F90F0509E31F89FD230B64136A
:10152400B250225492540259F249624AD24A424B6E
:10153400B24B224C456182805E8BCDB70111973747
:1015440000009387A71822CC03A4070B26CA06CE53
:101554002AC42EC6854419E40145F2406244D244AB
:10156400056182808347910003471400858B6304DF
:10157400F7000044CDB719469305A10013052400D4
:10158400EFF0CFDDE31795FE0545C1BF011122CC75
:10159400173400001304440918402AC62EC432C26A
:1015A40006CE3C4B93F7F7F73CCB977001E0E7800E
:1015B400A069184097360000938686043C4B93E755
:1015C40007083CCB9C423245A24523A007000347B1
:1015D40015000348250022074208429703480500E6
:1015E4004297034835006208429798D7034755004D
:1015F4000348650022074208429703484500429782
:101604000348750062084297D8D7034795000348FA
:10161400A5002207420842970348850042970348E1
:10162400B5006208429798DB0347D5000348E500FC
:101634002207420842970348C5000345F500429734
:1016440062052A97D8DB03C7150003C525002207C6
:1016540042052A9703C505002A9703C5350062058C
:101664002A9798CF03C7550003C565002207420592
:101674002A9703C545002A9703C5750062052A9772
:10168400D8CF03C7950003C5A500220742052A97B2
:1016940003C585002A9703C5B50062052A9798D328
:1016A40003C7D50003C5E500220742052A9703C5F1
:1016B400C50083C5F5002A97E2052E97D8D3D843F1
:1016C400759BD8C3D84313671700D8C398431367CF
:1016D400170098C3124698425C43858BD1E71C4F90
:1016E40001452300F6009C429C4FA183A300F60011
:1016F4009C429C4FC1832301F6009C429C4FE18392
:10170400A301F6009C42D84F2302E600D84F218360
:10171400A302E600D84F41832303E600D84F618338
:10172400A303E60098532304E60098532183A304FB
:10173400E600985341832305E60098536183A3058B
:10174400E600D8532306E600D8532183A306E60017
:10175400D85341832307E600DC53E183A307F60053
:10176400F2406244056182800100B5B75D713AD2EE
:1017740017370000130707E936D414433ED022DE9E
:101784009C5E4ACA86C6998396C49AC29EC026DCC9
:101794002ADA2ED832D642CE46CC72C876C67AC45D
:1017A4007EC2858B3A8417390000130969E5D1CBD1
:1017B4009C5E97340000938464E593F7F7F99CDE0C
:1017C400173700000347E7E493070008631BF7009B
:1017D400832709009C4393F7070417370000230A63
:1017E400F7E283C7040093F707049DC3973700000B
:1017F4009387C7CC9C4382979737000023A0A7E226
:1018040083C7040093F7F70B173700002300F7E0B2
:1018140083C7440093F707048DE785471737000013
:10182400A308F7DE97370000938707E09C43096716
:1018340098C7130700FC97360000238BE6DCD844D6
:10184400F8D31C40985F1183058B09CB985F3D9BAF
:1018540098DF054797360000238CE6DA985F1D83EE
:10186400058B11CB985F1377F7F798DF8547173708
:101874000000230FF7D883270900D8430583058B7D
:1018840019C7D843759BD8C3D843799BD8C372541E
:10189400B640A64216438643E2545255C2553256C8
:1018A400A256125782577248E2485249424EB24EEB
:1018B400224F924F61617300203097370000938765
:1018C400A7D6944397370000938747D403C70700EC
:1018D400058B11CB97370000238C07D29737000074
:1018E400A38807D2828003C71700058B65F7F852D7
:1018F40071FF83C75700DDB717380000130888D07D
:10190400032708001C5F9583858BD5EB1DC697378D
:1019140000009387A7DB83986704030306001C5B1E
:10192400BD83630B030893F7F71FB38717419A9797
:101934000947B3C7E7022300F60085CA83270800D6
:10194400985B4607935767016356070093E707C000
:10195400C207C18303970600C207C18709C7BA97A4
:101964000947B3C7E7022390F6009DC983471500D2
:1019740085CB9736000083C6C6C993F60604138741
:101984009700914785CA3A95034705008546137623
:10199400F7066311D60262076187B147634C0700FB
:1019A400832708009C5FED838D8B17370000A30409
:1019B400F7C681473E858280B3871741ADBF89470B
:1019C400D5BF411122C406C6173400001304C4C590
:1019D400184049E9AE877453FDFE3E85B2859737BA
:1019E4000000238607C2977001E0E7802003973741
:1019F4000000938727C19C43B70680009843558F06
:101A040098C3D857719BD8D797370000A38207C0D3
:101A140097370000A38C07BE1C40094798C3B7F74B
:101A240000E003A707D16D9B23A8E7D003A707D144
:101A34005D9B23A8E7D073005010144017370000B3
:101A44001307C7BC83472700858B89EB834737007F
:101A5400858BD9C797370000238C07BAB24022443C
:101A6400410182808D476310F50297370000938708
:101A740067B99C43B70680009843558F98C3D857DD
:101A8400719BD8D75DBF8547E319F5FAB567BD07E4
:101A94005CC70F1000001C400967094698C713076C
:101AA40000F8973600002385E6B6173700001307C1
:101AB40067B51443984231830D8B6319C70013072C
:101AC400E043F8D33D673D07D8C785BF98423183CB
:101AD4000D8B01E713076019EDB71307E01BD5B7AA
:101AE400FC52ADF3A5BF5D714EDE973900009389BA
:101AF40069B103A7090086C6A2C4A6C2CAC052DC43
:101B04001C4317390000130969B6173A0000130A79
:101B1400AAB193F7F7E793E707081CC383260900E4
:101B24003707CEFF7D179C46130680022A84F98F5F
:101B34009CC683270A00130700082800B8CBAE848C
:101B440093051008EFE01FFC977001E0E780C00FD9
:101B5400977001E0E780C01C83A709009376F41F07
:101B6400B70EFCFF23A40700984B130510F8CE858D
:101B74001367F70398CBF84F4A88B70F040013771D
:101B840007E0558FF8CF9843F576FD16758F98C307
:101B94009843B706330091421377F7E798C3984305
:101BA400FD1E85431377F7E71367071098C30327D0
:101BB4000900130F80021C47D58F1CC783270A0016
:101BC4001307900D3400B8CB014793583700A698FB
:101BD40083C7080013767700B3D7C740858BDDC76A
:101BE4009C41032E0800239C07042390070603232B
:101BF400CE021373D3FF23266E0203AE07001373C2
:101C0400F707137E0EF833636E0023A0670003A367
:101C140047023363F30123A26702014303DE07068D
:101C24006307C30303A30703038E06001353F300E0
:101C340062031353834163586E0003A307031353D2
:101C4400F3002380660003D307061373F30F03DE48
:101C54008705E3F5C2FD03A347023373D30123A22F
:101C6400670283870600635CF40003C308003396AD
:101C7400C3001346F6FF337666002380C8003E8611
:101C840063D3A7002A861315860161850507137798
:101C9400F70F8506E31BE7F3B6402644964406494E
:101CA400F259625A61618280011136C89736000088
:101CB400938686973EC49C423AC632CAD8472ACEF7
:101CC4002ECC1316170163550602984713161701F5
:101CD400635006027D57B8D71727000013074774CF
:101CE400584F050717260000232AE674116798C782
:101CF40098470D83058B1DC31737000003472791B1
:101D040013671700173600002303E690130700F843
:101D140017360000230EE68E214798C79847058B97
:101D240009CF173700000347778E1367170017365C
:101D34000000A30DE68C054798C798470983058BD7
:101D440009E798470583058B39CF98471736000074
:101D54001306C68B173500001305C58A0983058B46
:101D6400630C07101841184331830D8B631307105C
:101D7400AC4B184E93F5050203471700E9C57DE700
:101D840013077006D8CF03470600136717001736EA
:101D94000000230DE686114798C718415C57F19B54
:101DA40093E717005CD79C4298479316370163D694
:101DB40006029736000083C66698C18A173700006A
:101DC4001307C790E1C6034707071367070297364F
:101DD40000002385E696056798C798479316270160
:101DE40063D10602173700000347878262076187C1
:101DF40063570700054797360000238BE680096781
:101E040098C798479316070163D6060297360000D1
:101E140083C6D692858A173700001307278BC9C655
:101E2400034717071367270097360000A388E69037
:101E3400216798C77245E2455246C2463247A247D7
:101E44000561730020300DDF85456315B700130766
:101E5400B0060DBF89456315B7001307F0061DB71B
:101E64008D456315B7001307300729BF13075007C3
:101E740011BF1307600739B703473600136717000C
:101E840017260000A305E678094739B783460707F4
:101E94000946BD8A6388C600034707078D463D8B04
:101EA400E31BD7F2114725B783461707918AC9D296
:101EB400034717071367870085BF17270000130719
:101EC400E7768346B7019727000083C7F778B6976C
:101ED40093F7F70FFD4663EAF6044C4B9726000090
:101EE400A386F6749727000083C7577405473317F2
:101EF400F70097260000A381F6766D8F1DEF9726D5
:101F0400000083C6B675B3F6D702130500028147F5
:101F140033D6F500058A13F8F70F09CE6399E60066
:101F240097270000A3840771828081177DB7050776
:101F34001377F70F8507E39DA7FC8280972700009E
:101F44009387C7579C43011122CC4EC606CE26CA9E
:101F54004AC852C456C28297972700009387076FD6
:101F6400804781496305A406BE84972700009387B0
:101F7400A750038767013E8963550706018D1354F3
:101F840055009727000083C7076C9379F501636DAB
:101F9400F402370AC0A8B70A405705379C4497266D
:101FA400000083C6466A139756003E97830769016B
:101FB400158C63C507006363470156979727000094
:101FC40023AAE768E37BD4FC1604B3693401F24026
:101FD40062444E85D2444249B249224A924A05613A
:101FE4008280E37D85F8B707C0A8338487402295B3
:101FF40079B7972700009387674C9C43411122C40B
:1020040006C626C2829797270000938727648047D5
:102014006309A406BE84972700009387E745838756
:10202400670163D80704018D1354550097270000F6
:1020340083C767616367F4044935984497270000B0
:1020440083C767609396570036971D8C97260000C8
:1020540023A2E660E372F4FE2244B24092441725C0
:1020640000000345B55C81454101177301E0670039
:10207400430FE37A85FAB707C0A8338487402295D3
:1020840065B7B24022449244410182809727000000
:102094009387C75D9843B75702009387079F8326AA
:1020A40007091396560063580600832607091396FA
:1020B400660063440600FD17FDF3828071C5AA879C
:1020C4000145E9C58D07C207C183F19BC207C183DE
:1020D40013074003636FF702172700001307C75E57
:1020E4000843172700001307A75D14436398A6024B
:1020F4001727000013074738185B014541CB4111EE
:10210400C20706C60545DD8D0297B240014541016F
:102114008280172700001307E75AD9B703576500D1
:1021240035E303574500636FF704B306F7402146D0
:10213400637CD60203280500938687001D8FAA9628
:102144006117172600000356062E2392E60023A0EB
:1021540006012393060014C12312F500130786FF1A
:10216400972600002391E62C2313B5009725000041
:1021740083D5652BB387F540172700002315F72A6D
:102184002105828008419DB70145828082800DC16E
:10219400972700009387475303A30700972700005E
:1021A4009387075283A8070081469A8763E3170140
:1021B400828003A80700636DF50A636BA80A13877E
:1021C4008700E367E5FE03D6670021670507631709
:1021D400E60003C7419E05072382E19E9725000080
:1021E4009385052403D6470003D76500239307008E
:1021F400329742074183172500002316E522638A9C
:102204006702172500001305E54B08416303F50237
:1022140003D5660019ED83D7460023A006012107E4
:102224003E9621062392C60097270000239DE71EB1
:10223400B6879843E30E17F79726000093868648DF
:102244009442E307D7F683566700BDF283D647006E
:10225400035647001843A106B2962392D70098C3A9
:1022640083D76500A10717270000231EF71A828071
:10227400BE86C28725BF01119727000093870745B3
:1022840022CC03A4870B26CA4AC84EC606CEAA840B
:1022940013092500854915C083C71400034734007A
:1022A400858B6304F700405CFDB719469305440031
:1022B4004A85EFE0BF8AE31835FF2285F240624485
:1022C400D2444249B24905618280411197270000F6
:1022D4009387C73F22C403A4870B26C24AC006C6FD
:1022E40093042500054901E82285B2402244924422
:1022F400024941018280A6851305A402970002E0E9
:10230400E7804047E30225FF405CF1BF4111972776
:1023140000009387A73B22C403A4870B26C24AC0AC
:1023240006C693042500054901E82285B2402244EB
:102334009244024941018280A6851305A4019700B5
:1023440002E0E7802043E30225FF405CF1BF000088
:10235400971100209381C1C517610020130141CA60
:102364001305400097E5FF1F938585C917060020D4
:10237400130606FE63FAC5008322050023A0550058
:1023840011059105E3EAC5FE17250200130505733F
:10239400970500209385C5FB1386018763FAC50062
:1023A4008322050023A0550011059105E3EAC5FE2B
:1023B40013850190972500209385C5426377B50066
:1023C400232005001105E36DB5FEFD42739002BCA8
:1023D4008D42739042809302800873A0023097E28A
:1023E400FF1F9382E2C193E232007390523097222E
:1023F4000000938222D373901234730020303D4343
:102404002A876373C3029377F700BDEFADE5937634
:1024140006FF3D8ABA960CC34CC30CC74CC7410790
:10242400E36BD7FE11E28280B306C3408A069702AB
:10243400000096966780A6002307B700A306B7009E
:102444002306B700A305B7002305B700A304B7000C
:102454002304B700A303B7002303B700A302B70004
:102464002302B700A301B7002301B700A300B700FC
:102474002300B700828093F5F50F93968500D58DE0
:1024840093960501D58D61B79396270097020000B6
:1024940096968682E78086FA9680C1171D8F3E96AF
:1024A400E374C3F8A5B7B717004083C8870585460A
:1024B40003C89705A38C0704238CD70403C7970587
:1024C40093F8F80F1378F80F13679702A38CE704B7
:1024D400238DD704371700408347A7059305A70525
:1024E400858BFDFB0565C14637170040054E130378
:1024F400F5FF2380C50103C60500058A6DFE03565A
:10250400C705FD16C2061346F6FF33766600C18280
:10251400B297E5F283469705A107918393F6760F68
:1025240013050580A30CD7041D8D230C1705420544
:10253400A30C070541858280B717004003C77705C0
:102544001A0592054D8D1377E70F13653500A38B9C
:10255400E7041375F50FA38CA7048280B717004016
:1025640003C777051377E70FA38BE704130700F876
:10257400A38DE7043D47238CE70413075003A38C82
:10258400E70482800547B7170040238DE704371717
:1025940000408347A705858BEDFF0355C70552050A
:1025A40051818280411122C406C62A84692F3717BB
:1025B4000040930670052300D704930780FA230094
:1025C400F704010001000346F70213668600A3071F
:1025D400C7020346F7021376760FA307C702034622
:1025E400E7021376C60F2307C7020346E702136602
:1025F40016002307C7022300D7042300F7040100B1
:102604000100034637051376860FA309C704034662
:10261400370513661600A309C7042300D704230053
:10262400F70401000100834737059166130680FA19
:1026340093E70702A309F70483570705D58F2318E7
:10264400F70493067005B717004003C737051377DF
:10265400070261C7130880C19305803E3348050310
:102664009307500291682167138E08E8130707D077
:102674001143B71600409162FD18894E930F7005FF
:10268400130F80FAB345B5023308F802B387F50295
:10269400334EC5033348E802B3C7E70203C7360520
:1026A400218B6DDF03D7060503C73605218B6DFF2C
:1026B40003D70605336757002398E60403C7360596
:1026C400218B6DDF03D6060503C7260533F6C80044
:1026D4003387E8023A963306C6416354C800634D13
:1026E400F6047D131373F30F630803041317160022
:1026F4003347F7026350C00405072380F60523809F
:10270400E6053347D7030100010003D6C60232971A
:10271400420741832396E60251B72380D7042380DE
:10272400C7040100010003C7370513670702A38923
:10273400E70421BF7D17D1B7B717004083C637051B
:1027440013873705A18AFDDA83D6070583D60705E3
:102754001166D18E2398D704930670052380D7047D
:10276400930680FA2380D704010001008347070001
:1027740093F7870F2300F70083470700C18F93F770
:10278400F70F2300F7003717004083473705A18B65
:10279400EDFFB717004003C73705218B6DDF3746C0
:1027A4000F00130606243345C50283D6070583C7E5
:1027B400270511677D17F98E2166130606D03307A6
:1027C400F7028567BA96138707FA3317870033072A
:1027D400A7021305803E938707C8B3D787403347C2
:1027E400C7023307A7023387E64093066055B385D3
:1027F400D502B3C5C502B387E702B3C7B7026354B2
:10280400E0048507094793067005B3C7E702371745
:1028140000402300D704930680FA2300D7049607C8
:10282400010001008356C702B697C207C18323166D
:10283400F7028347370593F7F70DA309F704B2406E
:10284400224441018280FD1775BF41112A83014E44
:10285400930E407E130F0019930F400663E46E0E2F
:102864009308001913034006B3781503854E0D4FE2
:10287400A14F337365020D891335150063EEBE0E47
:102884001308F6FF79467298420813580801330773
:10289400C70213D61700BE0732976146B3F6C602C5
:1028A40013068070B386C6023697A166F58F420779
:1028B4005D8FB716004083C7F60293F70708A30796
:1028C400F1000346F10083C7F60293F70708E39487
:1028D400C7FE8347F100B716004093F7F70FFDC713
:1028E400B7170040930670052380D704930680FA37
:1028F4002380D7040100010023AA070383C617031A
:1029040011667D1693E60608A388D702D45BC85FD8
:1029140093854703A98EF18EF5FA930670052380FB
:10292400D704930680FA2380D7040100010098C1DC
:1029340003C7170313670704A388E7022380070468
:10294400410182807D133368E3039308E016630E2C
:1029540008003368F3039308D016630808009378DB
:10296400330093B818009388D81633081E01131E39
:102974000801135E0E01DDB56393E5030548638624
:1029840008000148630303002A8871087298FD1542
:10299400131E0801C205135E0E01C181C5B513F8EB
:1029A400150063F4BF007908D5B713381800E5BFE4
:1029B40083C7F60293F70708A307F1000346F10063
:1029C40083C7F60293F70708E394C7FE8347F10031
:1029D40093F7F70FF1DF29B7914763EEB7021717A3
:1029E40002001307A7608A05BA959C41BA978287AB
:1029F400B717004003A7470B1345F5FF698F23AAB8
:102A0400E70A03A7070B698F23A8E70A03A7070AA6
:102A1400798D23A0A70A8280B717004083A6470BAD
:102A24001347F5FFF98E23AAD70A83A6070B558D02
:102A340023A8A70A83A6070A758F23A0E70A828022
:102A4400B717004003A7470B498F23AAE70A03A738
:102A5400070B1345F5FF45BFB717004083A6470B87
:102A64001347F5FF758F23AAE70A03A7070A598DB1
:102A74004DB7B717004003A7470B498FEDB70111B6
:102A840022CC26CA2E8432C636C43AC23EC006CEF2
:102A9400AA84552C37480F0013080824335805031B
:102AA400B758004083D5488082471247C205C18188
:102AB40093F505FCC205C1812392B88083D5488073
:102AC400A2463246B365B800C205C1812392B880DC
:102AD40083D50880C205C181F999C205C1812390BB
:102AE400B880E1659385056A63EB85080604335471
:102AF400850205669305C6FF114542044180E18DB8
:102B040081C51305F6FF618D05081306F003637490
:102B140006011308F0034208375600401358080111
:102B24002310068337560040231EA6808355068053
:102B3400F240624493E515002310B6808355068065
:102B4400C205C18193F555BFC205C1812310B6806A
:102B540083550680CD8EC58EC206C1822310D680D1
:102B6400835686802314068083568680D244D58F6C
:102B7400D98FC207C1832314F6800561828015E6CC
:102B84008D45B305B4023355B5025205518111E1A7
:102B940005452166518D1306C0123308C802130679
:102BA400803E3358C8020508BDB7E5453304B40276
:102BB40011663355850252055181518DD9BF37575E
:102BC40000408357078011C593E707102310F7804F
:102BD4008280C207C18393F7F7EFC207C183FDB7B1
:102BE400375700408357078011C593E70720231008
:102BF400F7808280C207C18393F7F7DFC207C183DE
:102C0400FDB7B75700402398A78082809377E50FDC
:102C140099C193671500C207C18337570040231831
:102C2400F7808280375700408357078011C5A1661B
:102C3400D58F2310F7808280C607C583DDBF375741
:102C440000408356478183578781C207D58FE98F18
:102C5400A207A1833385A740133515008280411153
:102C640002C4B757004002C6938707803EC69357F5
:102C7400C5013EC4A2472205218199CBB247D107A1
:102C84003EC6B2479C4341017D8D3335A00082800E
:102C9400B2474181E107EDB721E1B71700401307BF
:102CA40070052380E704130780FA2380E7040100FA
:102CB400010003C727021377F7072381E70203D72D
:102CC4000702420741831377F79F4207418323900A
:102CD400E702238007048280411106C622C426C26B
:102CE4004AC001003714004013097005230024056D
:102CF400930480FA23009404010001008347240212
:102D0400294593E707082301F4028357040293E754
:102D140007402310F40297D0FF1FE78020592300B7
:102D2400240523009404010001008357040293E75F
:102D340007202310F40223000404B24022449244E6
:102D4400024941018280B717004003D5870042053C
:102D540041819377050491EB9377F5013755E801A9
:102D6400130505803345F50282809377050C13071C
:102D740000046397E7009377F50137459C1CCDB7B2
:102D84002165130505D08280B7F700E08847CC475A
:102D94008280814737370040A14663C4C70032852B
:102DA40082800345B740E38EA6FE3385F5000345D4
:102DB400050085072304A740CDB7411122C406C6E8
:102DC4002A8451372947B307E502B2408D83B3D72C
:102DD400870222449507B3D7E70237370040C2077A
:102DE400C1832316F74041018280716541111305A7
:102DF400052006C6D937B7370040130770F823817A
:102E0400E7400D47A381E74013070004A380E74090
:102E140005472387E740B24041018280CC414111FC
:102E240006C6328503C6150083C5050022064D8EED
:102E340042068D654186138875A2630C060F6348AC
:102E4400C804138845A26306060B634AC800938529
:102E540035A26309B60623900600294679A0138893
:102E640055A26308060B938565A2E316B6FEC14519
:102E74001D4663ECE5064546198E63F3C7003E869E
:102E84002390C600971502009385851889A8138896
:102E940095A26300060F634E060B1388A5A2630A6E
:102EA400060F938505A5E318B6FA99451D4663EE0A
:102EB400E502198E63F3C7003E862390C60093850E
:102EC400818031A89D451D4663E1E5022146198EA6
:102ED40063F3C7003E862390C60093850190BA959C
:102EE40097E0FF1FE78080BE0146B2403285410172
:102EF4008280AD451D46E3EAE5FE3146198E63F353
:102F0400C7003E862390C6009715020093850514DA
:102F1400F9B7B1451D46E3EAE5FC3546198E63F37E
:102F2400C7003E862390C6009715020093850513BB
:102F34007DB7C1451D46E3EAE5FA4546198E63F3BC
:102F4400C7003E862390C600971502009385850D21
:102F540079B7C1451D46E3EAE5F84546198E63F3A2
:102F6400C7003E862390C60097150200938505107E
:102F7400BDB7C1451D46E3EAE5F64546198E63F340
:102F8400C7003E862390C600971502009385C50AA4
:102F9400B9B7B5451D46E3EAE5F43946198E63F33E
:102FA400C7003E862390C600971502009385450509
:102FB4003DB797F6FF1F9386A64C4146CD4517F5BE
:102FC400FF1F1305E5386F80406F03C88500214556
:102FD40013780801631208082D453DEF03C5050069
:102FE40009476317E5063285D041411106C60347F8
:102FF40016000346060041682207518F130628FE77
:103004006308C7026369E600051863030703239096
:10301400060029451DA8130648FE630BC7001518B2
:10302400E31707FF15473E866377F700154621A08F
:103034003E8691C30546CC452390C6004206418294
:1030440097E0FF1FE78080A80145B24041018280DC
:103054002390060005458280828083C7850093F70C
:103064000702E1E3411106C622C426C24AC003C9CD
:10307400050009432E888547631B690203A34500A5
:103084003284B6848347130003430300A207B3E7E3
:1030940067004163130E13FE6382C7030D13638B32
:1030A40067040D681308289063850707A947B24091
:1030B4002244924402493E8541018280AD4765FB2A
:1030C4000547B547E365D7FE0325C8000546A28535
:1030D40097E0FF1FE780809F0149938701929843FF
:1030E400814771D7184361D72686A2854A850297FE
:1030F400814775BFAD4745FF0547B547E369D7FA33
:103104000325C8000546A28597E0FF1FE780009CC1
:10311400E9B72244B24092440249854741016F60B5
:103124009022A1473E85828041677917630CE502AE
:10313400411122C406C685472A84639AF500228574
:103144002244B240938581A641016F80E0618947A2
:103154006396F5008545EFA0100E75D1B240224468
:10316400410182808280411122C42A844165938571
:1031740081A67D1506C6EF80205F170500001305A4
:10318400E5FA0588EFA0700205C02244B24097F624
:10319400FF1F9386A6404146C54517F5FF1F13053B
:1031A400E52E41016F806051B24022440145410146
:1031B400828009C523A0A192014582804545828071
:1031C4001147636EA70697160200938666EB0A05FD
:1031D40036951841411106C63697AE87B2850287E7
:1031E40005476145639AE70005461385819097E09A
:1031F400FF1FE780A08D0145B24041018280054751
:103204006145E39BE7FE05461385C190CDB70547AD
:103214006145E393E7FE054613850191C9BF054760
:103224006145E39BE7FC054613854191C9B7154702
:103234006145E393E7FC1546138581914DBF09452C
:103244008280411122C42E84938581A626C206C69B
:10325400AA84EF60100A058915C197F7FF1F9387A9
:10326400E72283D7A70BA285B2402310F40022449F
:1032740026859244014641016F70E064B2402244C5
:10328400924449454101828011456FF0AFB141112B
:1032940093962500AA852D4506C697D0FF1FE78083
:1032A400404CB240014541018280411126C29394B1
:1032B400250022C44AC02A843289A686AA850146EA
:1032C400254506C697D0FF1FE780A049A6864A86F3
:1032D400A285294597D0FF1FE780A048B240224429
:1032E40092440249014541018280011122CC06CE5B
:1032F4003714004026CA4AC84EC652C483447405D3
:10330400034AB4058349840503499405EFF00FA5E6
:103314008347A40593F4F40F137AFA0F93E7170085
:10332400230DF40493F9F90F1379F90FB71700403B
:1033340003C7A705058B6DFF03D5C705A38D4705F7
:10334400238C3705A38C2705A38B9704F240624492
:10335400D2444249B249224A05618280411193977D
:10336400050122C406C6C1872E8463DD0700EF0071
:10337400F06A19C1EF0070632165218DB2402244C7
:103384004101828093F7150013C51500E5FB93975F
:10339400250163D00702EF509143FD3537F6020053
:1033A400130606E0896503C541C3EF10C0400965F3
:1033B400E9B7939715010145E3D207FC112C1306D5
:1033C4000064916503C541C3EF10E03E116575B714
:1033D4001D714946971502009385C5CB1715020048
:1033E4001305053186CE97D0FF1FE780207701E9CA
:1033F40017150200130545CBEFF0912401A0B7F691
:1034040000E0795798CAFD57DCCA0567B7E700E0C2
:1034140023A0E7101306F00290C223A0E7180100CE
:1034240001001306C0038145480897D0FF1FE780B9
:10343400606D97F7FF1F9387277E3ECA896793873E
:103444000780231CF100ED472312F1029547A301E5
:10345400F10285472303F102B5472304F102A16772
:10346400938707E03ECE97070000938787E2BEC4A8
:10347400970700009387A7E3BEC68567938717D095
:103484002315F10297070000938747903EDAB7F5BA
:10349400070097070000938787E53EDE814697077C
:1034A40000009387A7DE7000E1051945BEC097D0E0
:1034B400FF1FE780002B58088147994670003E960D
:1034C4000346060085070507A30CC700E398D7FE4B
:1034D400D24791C70357810185676373F70001A041
:1034E4004808EF10E070AA8501C9171502001305FA
:1034F400E5BCEFF0510301A0F64025618280411143
:10350400170500001305C5E506C622C4EF10806A3E
:10351400138441C32300A400292803450400224442
:10352400B24037F60200130606E0896541016F10C8
:103534008028411106C6B717004013077005238081
:10354400E704130780FA2380E7040100010003C79E
:10355400F7021377A70FA387E70203C7F7021367DE
:103564002700A387E70223800704393B1305407E25
:1035740081470147814605468545EFF00FADB240CE
:10358400014541016F109018938781929843184325
:1035940009E7FD5723ACF19282809C43DC479C43AE
:1035A400D5BF411181451305000806C6EFF0CFC20F
:1035B400814513050002EFF02FC285450145EFE078
:1035C400BFF7EFE05FEEB2402392A1C641018280D3
:1035D40001118545014522CC26CA4AC806CE4EC6ED
:1035E400EFE09FF5B71700402D471384C1C3238C28
:1035F400E704938441C62289EFE0DFF82310A90091
:103604000909E31B99FE9387C1C3814903D70700C6
:103614008907BA99E39C97FEB71700400547238CA6
:10362400E7041389C1C3EFE0FFF52310A9000909DA
:10363400E31B99FE01468357040009043E96E31CEC
:1036440094FED1453356B60217150200130585AC16
:10365400B3D5B902EFF0216DB717004003C7770562
:103664001377E70FA38BE70403C797051377C70FF7
:10367400A38CE704F2406244D2444249B249056152
:103684008280B717004003A7070C411106C61367D1
:10369400070823A0E70C03A7870C09661377F7F73D
:1036A40023A4E70C03A7070C1367070123A0E70C67
:1036B40003A7870C3D9B23A4E70C83A6070AD18E9E
:1036C40023A0D70A03A7870AF176FD16518F23A4F6
:1036D400E70A03A7070A1166758F23A0E70A83A6E2
:1036E400070BD18E23A8D70A03A7870A518F23A4D7
:1036F400E70A03A7070A05661367870023A0E70AFA
:1037040003A7870A1367870023A4E70A83A6070A87
:10371400D18E23A0D70A03A7870A518F23A4E70ACF
:1037240003A7070C6D9B23A0E70C03A7070D1367E2
:10373400470023A8E70C03A7070C759B23A0E70CFD
:1037440003A7070D1367270023A8E70C03A7070C9B
:10375400799B23A0E70C03A7070D1367170023A881
:10376400E70C81357520B24041019DA4411106C684
:1037740022C426C237050200EFF06FCE65FD054571
:1037840037040300EFF0AFC305042285EFF02FCB1D
:103794006DDD814513058007B7040700EFF00FC7FF
:1037A4002D44938424082685EFF06FC939C5370565
:1037B400001013050508EFF08FCA01C50145EFF0AD
:1037C4004FC43705001013050508EFF04FC909C5AC
:1037D4001305E00AEFF0EFC23704070013044408AE
:1037E4002285EFF0CFC56DDD0545EFF06FBF0545D0
:1037F400B24022449244410182807D144204054532
:10380400418097D0FF1FE78040AB51FC0145CDB705
:103814004111171502001305A59006C6EFF0416289
:103824000545EFF02FC00145EFF0CFBFB7170040BB
:1038340083A6870C0967B7250600D98E23A4D70C65
:1038440083A6070C1166938505A8D98E23A0D70CEF
:1038540083A6070D0145D98E23A8D70C83A6870C10
:10386400558F23A4E70C03A7070CFD76FD16758F6F
:1038740023A0E70C03A7070D8566558F23A8E70C43
:103884009306004081471167EFF06F9FC535B24042
:103894002386A19441018280828083C7C194D1CBC5
:1038A400411122C41334150026C206C64AC0AE8490
:1038B4001A0437050200EFF08FBA65FD0545370994
:1038C4000300EFF0CFAF05094A85EFF04FB76DDD88
:1038D40081451305800737090700EFF02FB313095B
:1038E40029084A85EFF0AFB56DDD370500101305E3
:1038F4000508EFF0CFB601C52285EFF08FB037058C
:10390400001013050508EFF08FB501C52685EFF00B
:103914004FAF37040700130444082285EFF02FB299
:103924006DDD2244B24092440249054541016FF0E5
:103934002FAB82809305F00A19E19305E00A05454F
:10394400A9BF9305700A19E19305600A0545B1B74B
:10395400011122CC4AC84EC606CE26CAAA8913042F
:10396400000B1309800BA2850545053F85450545D8
:103974002D37C1450545153793040008CE8501450B
:10398400FD14213FE5FC05041374F40FE31D24FD2D
:10399400F2406244D2444249B249056182804111F5
:1039A400938505FB22C493F5F50F2A84054506C6C5
:1039B400ED359355440093E505010545F93D9375AF
:1039C400E4002244B24093E5150005454101F1B5F8
:1039D40083C7C194638607104111170502001305BC
:1039E400257506C6EFF0C1451305401F97D0FF1F8C
:1039F400E780A08C01453D3F81450545793DC145A2
:103A04000545613D930500040545413D93051008B6
:103A1400054561358145054549359305100A054538
:103A2400AD3D9305800C05458D3D9305600A054524
:103A3400AD359305800A05458D359305F00305459D
:103A4400A93D9305300D0545893D81450545B135B1
:103A54009305500D05459135930500080545353D01
:103A64009305900D0545153D9305100F0545353516
:103A74009305A00D05451535C9450545393D930503
:103A8400B00D0545193D93050004054539359305E9
:103A94000002054519358945054501359305D008CA
:103AA4000545E53BD1450545CD3B9305400A054514
:103AB400ED33014579359305E0020545F93B3D4574
:103AC400413D1305401F97C0FF1FE780007F8145DC
:103AD4000145F135B2409305F00A0545410175BB36
:103AE400828001114AC852C413195600170A0200F1
:103AF400130ACA6422CC26CA4EC656C25AC006CE7F
:103B04002A8BAE8913040901593DCA84D28AB307AA
:103B14009A0083C507008504C2040145C180B53BF2
:103B2400E31794FE9385190093F5F50F5A85853DA7
:103B340013090902B3878A0083C5070005044204F8
:103B440001454180993BE31789FEF2406244D24427
:103B54004249B249224A924A024B0561828041118C
:103B640001468145214506C6AD3F054681455D4573
:103B74008D3F0946814513056002A5370D468145F1
:103B840013055003B93F1146814513054004913F85
:103B94001546814513053005A937B24019468145BC
:103BA40013052006410135BF4111014506C64D33B9
:103BB400B24041016DB72A86B305B0401705020033
:103BC400130585786FF02116011106CE19C58947B2
:103BD4006301F502F24005618280680097D0FF1FFF
:103BE400E780C0EE1715020013050583EFF04125A9
:103BF400D5B7680097D0FF1FE78040ED1715020086
:103C040013054583E5B783D701966390A7022391F3
:103C1400B1962392C1962393D1962E86170502005E
:103C240013058570BE856FF001101705020013059A
:103C340025716FF0E12003574500011106CE83D7AB
:103C44000196631FF702C167F917894503C5C1814E
:103C540023A0F19623A20196EF001052914503C5CB
:103C6400C181EF00705185471306F10085451305A6
:103C74005030A307F100EFA0F122F24005618280E9
:103C8400170502001305C56BEFF0811BFDB73D89D5
:103C94007D15954763E1A71617070200130707620E
:103CA4000A053A951C41411122C406C6BA972E84CE
:103CB4008287170502001305A56A2244B240410118
:103CC4006FF0011883C7250019476391E7022E8519
:103CD4009D37834564001705020013056569EFF0FD
:103CE4008104170502001305656AC1BF0D47E38A05
:103CF400E7FEB24022444101828003C72500954774
:103D0400E319F7FEC16703D70196F91703D5A50098
:103D1400630FF700EFA0D1441705020013050568EF
:103D2400EFF00112170502001305C56979B7239056
:103D3400A19683D7E5001306006403C5C1812391CE
:103D4400F19683D705012392F19683D725018945FE
:103D54002393F196EF003026096613060690A145D9
:103D640003C5C181EF0030250566130606C89145D9
:103D740003C5C181EF0030240356E4008355A40039
:103D8400170502001305C562EFE0F17961BF03C7AF
:103D940025008D471705020013058563E31BF7F41F
:103DA40029BF83C5250091476397F50017050200D5
:103DB4001305856319B79947639FF5002285A53DCF
:103DC40083456400170502001305855A2244B24056
:103DD40041016FE051759547639AF50083471400DC
:103DE400F1F7170502001305E561C1BD17050200CF
:103DF4001305C561E1BF828001119397050122CCAF
:103E040006CE26CAC1872E8463DA070603C5C1819C
:103E14003121AA8405CD834705001307000B638E67
:103E2400E7021307000D6391E70203472500C54726
:103E3400631CF700034665008345750017050200FF
:103E440013054549EFE0316E268585262165218DD0
:103E5400F2406244D24405618280034745009307DF
:103E6400F007E313F7FE83558500170502001305D9
:103E74002548A383B182EFE0116BF9B793F71500DE
:103E840091CF17E6FF1F130666789385819503C5C6
:103E9400C181EFA0C150134514005DBF93F7250005
:103EA400ADCB13060064894503C5C181EF00B01092
:103EB400930780F82302F10003C771828D4763EBF7
:103EC400E700170502001305E543EFE0717713459A
:103ED4002400BDBF8547014781460546ED4503D50E
:103EE40001962315F100EF50407D2AC66DD103568B
:103EF400A1004C0097D0FF1FE78040BD2C0003D5E4
:103F04000196EFF00FB461D5ED452800EF50B012E3
:103F14007DBF93F7850085C383C7C181130740061E
:103F2400814613064006994503D50196EFA08140CA
:103F34001345840031BF93F705019DC301478946AA
:103F44000946814503D50196EFA0D123AA8517051B
:103F540002001305253CEFE0115D13450401CDBDBE
:103F640093F745000145E38507EE03D50196EFA0DD
:103F7400F11E0566130606C8914503C5C181EF000D
:103F8400900313454400E9B5797117050000130542
:103F9400E5E606D622D426D2EF00D0419384C1812F
:103FA400994705442380A400231AF10010089307BD
:103FB4004006854513055030231CF1002308810079
:103FC400EFA0416E17E6FF1F13068666F145130541
:103FD4007030EFA0216D138601829D45130560307A
:103FE400EFA0416C5008894513051031EFA0816B97
:103FF4003008894513052031EFA0C16A17E6FF1F79
:1040040013068661D5450145EF50C025930500642C
:104014000D45EF20B012930500641145EF201012F6
:1040240085457945EF20901130089145130570407E
:1040340023048100230681002308810002CC230A83
:104044000100EF9061213000854513050040EF9099
:10405400A1207000854513051040EF90E11F500822
:10406400854513052040EF90211F10088545130551
:104074005040EF90611E7D55EF50602C7D55EF70E0
:10408400806BEFE01FF37D55EFF0EF8D894723063A
:10409400F1008D472308F1009147230AF10093872B
:1040A4008186984383C747003000854501453ACC53
:1040B400230EF10023048100EFF08F9070008545FA
:1040C4000545EFF0EF8F100885450945EFF04F8F58
:1040D400500885450D45EFF0AF8E300895451145E4
:1040E400EFF00F8EC16713870196F9171CC32322C3
:1040F400070013858181EFF0CF8B13850195EF8045
:10410400A12903C504008545612BB2502254925461
:10411400456182801305800417C3FF1F6700A3FA5B
:104124004111054506C6EFE03FB7ED3737170040AC
:104134008327870A8D451305002093E7072023244E
:10414400F70AEFE07F89EFE05FCAEFF08FD317053E
:1041540002001305E559EFE0B14EEFF06FA7EFF061
:104164000FBAEFA071020D351306803E916503C5A9
:1041740041C39125EFF05FA3EFF00FF297C0FF1F4B
:10418400E780604AB24001454101828023AC05FECC
:104194001C4191E7010001000CC18280BA8703A78A
:1041A40087FF6DFF23ACB7FE82801DC18346E5FF08
:1041B4001307F00F9147639EE600411106C697E08E
:1041C400FF1FE780C0FCB24081473E8541018280E9
:1041D40095473E85828001E9014582800145B240D0
:1041E40022444101828095654111938505D022C402
:1041F400C98D2A842105C2054205C181418106C6B3
:1042040097E0FF1FE78080EB71D9FD57232005005D
:10421400231285002303F5002105D1B717070020D9
:104224001307871F1C43411122C426C24AC006C675
:1042340001440149BA8489E7A1653D2F1DC401A841
:1042440003C7E7FF631AA7020DCCA1659129984023
:10425400832784FF6319E40217070020232EF71A2B
:10426400FD57232C04FE230FF4FE2285B240224482
:10427400924402494101828011E03E8983A787FF6D
:104284005DBF3E84E5BF232CF9FED9BFB1CD4111FA
:1042940022C406C62A849707002083C737182E85B0
:1042A4006375F400894763E8870001370D45B24020
:1042B40022444101828083A785FF99E703C7E5FF74
:1042C4009307F00F6305F700CD351545CDB7238F60
:1042D40085FE17050020130525144D3D2285224433
:1042E400B240A16541016DAE15458280970700205B
:1042F40023A40712828097070020938767179C43A3
:1043040099E33E85828003D727006316B70003C76D
:104314000700E308A7FEDC47E5B7C9C1797122D4D9
:1043240006D626D24AD04ECE01444147B3D7854063
:10433400858BA5C31205314722953305E5029707FE
:1043440000209387E71603A907008544B3948400EB
:10435400C204C180BE892A990327090011C7032515
:1043640049002EC60297B24531473304E40283A7BD
:1043740009003E941C4489E72320090023220900F4
:10438400B2502254A58D02599254F2492E854561AA
:1043940082800504E31CE4F88144DDB72E85828025
:1043A40041111397050122C406C626C24AC041879B
:1043B4002E84635E07009D3511C1C53BA1673D8C0A
:1043C4002285B24022449244024941018280EDD9BF
:1043D400AA8701474146B356E440858A8DCE9207A9
:1043E400BA97B146B387D702970600209386460C46
:1043F40003A906008544B394E400C204C1803E9935
:1044040083270900032549008297232009002322DA
:104414000900258C75B70507E31FC7FA8144D5BF8A
:1044240097070020938707059C53411122C406C6B1
:104434001384818299C782971C403E9523A4A1824C
:1044440039A097070020938727079C43EDF708407E
:10445400B74703009387D73F3305F502B7A7260074
:10446400938737ECB24022443E9523A4A1824101B4
:1044740082800111680006CE22CC26CAEFD0807853
:10448400FD576300F50E324797060020938686FE9B
:104494009707002083C757FFB68463F9E70A170418
:1044A40000201304A4F718483706C0A8630EC702F7
:1044B40097070020938747009C43829732471C4804
:1044C4006373F700BA87170700200347F7FB998F38
:1044D4003E958387640163CE0700B707C0A8636A6B
:1044E400F500B7074057A5A88386660163D506067D
:1044F4001D8D17040020130424111C4C81CF970731
:1045040000209387671694433707CDFF7D179C4699
:10451400F98F9CC619E13705C0A897070020938737
:1045240067F5DC53829719E51C4C8DC3EF40713D50
:10453400EF40E1281C4C99CB970700209387C712C2
:104544009843B70633001C47D58F1CC7F24062441A
:10455400D24405618280E37DF5F8B307F7403E95C8
:1045640049BF97040020938464EB9C483704C0A897
:10457400E38E87FC97070020938707F49C43829778
:104584009C4817070020034737F0998F3E959707FB
:104594000020938727EE83876701E3CC07F4E36A5F
:1045A40085F481B77DC93748F6A6130808C889473A
:1045B4006366C80E797197070020938767EF22D44A
:1045C4005AC803A807003E8B06D626D24AD04ECE40
:1045D40052CC56CA5EC662C40144B148C147B30B4B
:1045E4001403137CF40F33037801032303006311D2
:1045F400030AAE8AC165AA84938505F041453A8AC7
:10460400B689328997E0FF1FE78040AB0DE9970731
:104614000020938727E69C5B99EF8147B250225490
:1046240092540259F249624AD24A424BB24B224C4A
:104634003E8545618280814511458297F9BF970780
:1046440000209387E7E2984321E39707002023A102
:10465400A7E22300050083270B00054733148700D6
:104664002326050023242501231185002322450147
:10467400DE9784C323A2570123A44701E38F09F8DB
:104684002380890159BF36875447F5FE48C7D1B7FF
:104694000504E316F4F4A14751B789473E858280A7
:1046A4009707002083C797D76371F5021707002087
:1046B4001307C7DB9317150008433E95835705007E
:1046C400DD8D2310B500014582800D45828097075A
:1046D400002083C7B7D46373F502170700201307BC
:1046E400E7D893171500084393C5F5FF3E95835704
:1046F4000500FD8D2310B500014582800D458280A3
:104704009307F00263E6A70A31463306C50297070A
:1047140000209387E7D994432A870945B2969C429F
:10472400D1CB011122CC4EC60544935947003D8B91
:104734003317E40013140701418026CA4E85AE8462
:10474400A2854AC806CEEFF01FBB2A890145630A39
:104754000904A2854E85A53F970700209387C7D5F6
:104764009C4382979707002083D7C7CDB3879702CE
:104774001307006493870732B3D7E7023E95970780
:104784000020938727CF8387670163C90700B70792
:10479400C0A86365F500B70740573E952324A900D8
:1047A4000145F2406244D2444249B24905618280E3
:1047B4000945828082809707002083C737C66364D7
:1047C400F50001458280970700209387E7CE9C433C
:1047D400EDDB011122CC26CA4AC84EC606CEB289E8
:1047E4002E89AA848297170400200354A4C5330495
:1047F400340393070064130404323354F402970718
:104804000020938727C703876701BE892A946349D9
:104814000700B707C0A86365F400B70740573E9484
:10482400CA852685EFF03FAD01C500C5054515A035
:1048340093E504F0C205C181414597E0FF1FE7807D
:10484400E08719ED83A7090381C7A68511458297DF
:104854000145F2406244D2444249B2490561828032
:10486400970700209387C7C09C439DE397070020C8
:1048740023A0A7C085472326050000C523112501D1
:1048840023009500A300F5002322050045B7BA874D
:10489400D84775FFC8C7F9BF51C9797122D426D248
:1048A4004AD04ECE52CC56CA5AC85EC662C406D648
:1048B400B689B28A2E8A2A899304000C4144170BC4
:1048C4000020130BEBBE054C930B000383270B0056
:1048D400A6979C43A1E79375F400B315BC00C205E9
:1048E4005686C18113554400F9350DC983270B0041
:1048F4000145BE9423A0240123A24401638409003A
:1049040023808900B250225492540259F249624AD7
:10491400D24A424BB24B224C456182800504137447
:10492400F40FB104E31474FB2145E9BF0945828007
:10493400411122C426C24AC006C6AA842E893284E2
:104944009D3DCA852685EFF01F9B0DC517060020E7
:10495400035646AF330686029307006413060632F5
:104964003356F60250C10145B240224492440249F2
:10497400410182802145CDBF411122C426C24AC0D3
:1049840006C62A892E84EFF01F97AA8419C1231121
:104994000500A2854A85253B9707002083C707A801
:1049A400639B27019707002083D707AC5D8C97078B
:1049B4000020239B87AA014591E01945B240224477
:1049C40092440249410182809307F00263E8A704FC
:1049D4004111B14722C43304F50226C297040020D2
:1049E400938404AD9C4006C6A297984389470DC39F
:1049F4009377F5008545B395F500C205C181118112
:104A0400A53F9C40A29723A0070023A2070081474B
:104A1400B240224492443E854101828089473E85CA
:104A24008280411106C622C4EFF0FF8C11E50145D6
:104A3400B240224441018280970700209387C7A790
:104A44009C4300458297970700209387A7A28387FA
:104A5400670163D50702B747F6A63305A4409387D9
:104A6400F7C7E3E6A7FC930700643305F50297074D
:104A7400002083D7279D3355F5025DBFE37DA4FC59
:104A8400B707C0A83E94C1BF411106C697070020CE
:104A940023A2A7A20295B2409707002023ACA798AF
:104AA400014541018280994763E9B7008A05970768
:104AB40000209387A799BE9588C1828041117146D1
:104AC4008145170500201305659806C622C426C231
:104AD40097C0FF1FE78000031306C0028145170536
:104AE40000201305A59397C0FF1FE780A001EF9056
:104AF40071739707002023AD07969707002023AB17
:104B0400079A9707002083C7579813D527008D8BE2
:104B14003E958D473305F5021704002013040490D5
:104B240099478545970400209384049239051375A9
:104B3400F50F2301A4003305F5021305052497D0CE
:104B4400FF1FE780A0579707002023A3A79683475A
:104B540024001305052488C08A073E959707002082
:104B640023A6A790EFF08FF8BD218347140094404B
:104B740017F6FFFF1306A67A13972700369710C37C
:104B8400138717001377F70F0A07369717060000E5
:104B94001306468110C313873700890793F7F70F6D
:104BA400A300E400B24022448A07B69790C392441B
:104BB400410182809707002083C75786170700208A
:104BC4000347E78563F3E702170700201307C78746
:104BD40018439386170017060020A301D6849396E2
:104BE4002700369708C33E8582809307F00FE5BF00
:104BF4001C416387071641777D8FB70600208947DC
:104C04006311D71603574500630D0714411126C2DB
:104C14001946AA849305F00F690506C622C497C0F5
:104C2400FF1FE78040F805478D476305E512170429
:104C34000020130424841C4481CB58589947631BD7
:104C44000710185C631807101306C0038145170585
:104C540000201305258297C0FF1FE780A0EA1306F2
:104C6400C003A685170500201305C58097C0FF1F44
:104C7400E780C0E59707002083D7878099E79307EB
:104C8400001017F7FF1F231DF77E97F7FF1F83C739
:104C9400477F91E7854717F7FF1F2304F77E97F7B0
:104CA400FF1F83D7277E91E7ED4717F7FF1F231BCD
:104CB400F77C97F7FF1F83C7D77C91E7954717F7D2
:104CC400FF1FA300F77C97F7FF1F83C7C77B91E7FC
:104CD400854717F7FF1F2308F77A97F7FF1F83C746
:104CE400977A99E78347F40017F7FF1FA30DF77826
:104CF40097F7FF1F83C7477991E7B54717F7FF1F5A
:104D04002304F77897F7FF1F83C7577899E793072A
:104D1400800217F7FF1FA30BF77697F7FF1F83C7D0
:104D2400B77699E79307D00217F7FF1FA30EF7741E
:104D340083C7840199E79307C00317F7FF1F23076D
:104D4400F7741C5491C7829797F7FF1F239CA76C95
:104D5400B5338147B240224492443E85410182806A
:104D640089473E85828097F7FF1F9387E7749C43AA
:104D7400411106C6829793070064B307F50297F6BC
:104D8400FF1F83D6266C17F7FF1F13072769184FD9
:104D94000145B3D7D7026300F7023385E740636860
:104DA400F700370500B03355D502198D3E9517F736
:104DB400FF1F2321F768B24041018280011122CCF8
:104DC4000A852E84414697F501009385252106CE58
:104DD400EFD0116A180806043A94035504FF97F7B4
:104DE400FF1F83D74766F2406244AA9737450F00F6
:104DF400130505243355F5020561828097F7FF1FDB
:104E040083D7676451471D45637CF7027947194589
:104E14006378F7021307200315456373F70213073A
:104E2400B0041145637EF700130740060D4563790E
:104E3400F7001307600909456374F70013B5B70F4A
:104E44008280011122CC06CE2A842EC6EFF04FDDDB
:104E5400B245F240818D33A5A502229562441375B3
:104E6400F50F05618280011122CC06CE2A842EC65C
:104E7400EFF00FDBB245F240818D33A5A5022295F8
:104E840062444205418105618280011122CC06CE33
:104E94002A842EC6EFF0CFD8B245F240818D33B5C7
:104EA400A502229562440561828097F7FF1F9387CC
:104EB400675C985739CB411122C426C206C6BE840A
:104EC400029717F7FF1F0357E7552A8415CBBA87B4
:104ED4006373A700AA87C207C183BA866373E40019
:104EE400A286C206C182958F5147635BF700DC54EA
:104EF40091C38297EF40A10D97F7FF1F2394875228
:104F0400B2402244924441018280828097F7FF1F7D
:104F140093874756DC57011106CE81C72AC682976C
:104F240032451DC5B7873200938727A117F7FF1FA6
:104F3400232AF75097F7FF1F23A0A758170500004F
:104F44001305A5E2EFF05FB4F240014505618280EC
:104F540097F7FF1F83C76753139787016187635CC4
:104F6400070297F7FF1F23A9074CB78732009387DF
:104F740027A117F7FF1F2327F74C7D57B7C700401A
:104F840023A4E72697C7FF1F938707F917F7FF1F87
:104F94002324F75265B713F7170011CFB7872003FF
:104FA400938707D017F7FF1F232EF74897C7FF1FD4
:104FB4009387A7F9E1BF617797F6FF1F2394E6482B
:104FC40081CB9307003217F7FF1F231EF746F9BF63
:104FD40093072003CDBF011122CC17F4FF1F130444
:104FE4006449084406CE26CA4AC801E90545F24088
:104FF4006244D2444249056182805C58E5DB185C16
:1050040075D77000854582971844B247E300F7FED0
:105014009305E00417F5FF1F0355854697D0FF1F3E
:10502400E780C00917F7FF1F232AA74061D117F6AD
:10503400FF1F0356E6449305F00F97C0FF1FE78058
:1050440060AC814417F9FF1F1309493D97F7FF1F0F
:1050540083C727430326090263C1F402328597D02C
:10506400FF1FE780C012014597F7FF1F23A8073CE5
:1050740097F7FF1F23A6073C9DBF97F5FF1F83D516
:105084002540B38795020844185C898185043E95C0
:1050940008C2029765BF411122C417F4FF1F13040D
:1050A400643D1C4426C206C64AC097F4FF1F93847D
:1050B400E43691EB885025EDB240224492440249F3
:1050C4000145410182801C5CF5D79C5099EF930502
:1050D400E00417F5FF1F0355A53A97D0FF1FE7809B
:1050E400E0FD97F7FF1F23ABA734885061D517F66F
:1050F400FF1F0356E6389305F00F97C0FF1FE780A4
:1051040060A0014997F7FF1F83C7A7379050E35367
:10511400F9FA97F5FF1F83D5A536338525031C447B
:10512400898105093E951C5C08C28297E1BF97D02E
:10513400FF1FE780C00597F7FF1F23A1073097F7EC
:10514400FF1F23AF072E8DBF011156C297FAFF1F11
:10515400938A4A3283A78A0022CC4AC84EC606CE16
:1051640026CA52C45AC0AA892E843289638507226A
:1051740003A74A03630707147D476366A71497F4DC
:10518400FF1F9384A42903AA040263170A0A9565DE
:10519400938515E017F5FF1F0355852E97D0FF1F44
:1051A400E780C0F197F7FF1F23AAA7282A86630A7E
:1051B400051083A74A0303A58A0097F5FF1F83D52B
:1051C400252C8981829783A78A0003AA040217F7F2
:1051D400FF1F2327F7268947639CF908C1476312F9
:1051E400F40E97F5FF1F83D5A529938505FC9147F8
:1051F400B3C5F5028A05D29503C705009307A00538
:10520400631DF70A83C715006399370B4A85228605
:10521400910597C0FF1FE780608B9C505285639374
:1052240047150145F2406244D2444249B249224AF8
:10523400924A024B05618280D850E38EE7F8956567
:10524400938525E017F5FF1F0355852397D0FF1F8E
:10525400E780C0E62A8A35C52A8683A74A0303A5C0
:105264008A0097F5FF1F83D5A52189818297A5B769
:105274008D47639DF900C1476315F40497F5FF1F3B
:1052840083D50520938545FDF199B5B79147639A78
:10529400F9006318340397F5FF1F83D5651EA11524
:1052A400E5B7C147639FF900A14763EC870097F511
:1052B400FF1F83D5E51CC115C1BF9C505285639760
:1052C400470D294585B71307F006568B6361A70A76
:1052D400130A05FE1947334AEA0217F7FF1F03575B
:1052E400271A97FAFF1F938A6A13330AEA023E9A2F
:1052F40083A74A026395470183A40A029DE49305A8
:10530400E00417F5FF1F0355A51797D0FF1FE7808B
:10531400E0DAAA845DD583274B0397F5FF1F83D575
:1053240025162A8689815285829791451307A005FF
:10533400898193972500A69783C607006393E604A3
:1053440083C61700639C360385058A052286A695C5
:105354004A8597B0FF1FE780607783A70A02E3823C
:1053640097EC268597D0FF1FE78060E25DBD1307A9
:10537400E007E368A7F4130A05F985B783D5270086
:1053840045BF83A70A02E38E97F2268597D0FF1FB5
:10539400E780E0DF3DB797F7FF1F938727088C531B
:1053A4008DD191479306A0058983139727002E97E3
:1053B40003460700E317D6F003461700631C3601C3
:1053C40085078A072286BE954A8597B0FF1FE78026
:1053D400E06F81BD83572700C1BF97F7FF1F9387F5
:1053E4006709984739C79C5FA9C705476313E50454
:1053F400411122C417F4FF1F13044402105006C6BF
:105404000DC6485097F5FF1F83D58507898182977C
:10541400085097D0FF1FE78080D797F7FF1F23AF6F
:10542400070097F7FF1F23AD0700B2402244410154
:1054340082808280011117F7FF1F1307A7034EC64E
:105444008329870022CC26CA4AC806CE52C456C233
:10545400AA842E843289638A09201C5FBA8A99EB54
:105464002945F2406244D2444249B249224A924A0E
:10547400056182805C5BEDD7FD4763E9A70E97F970
:10548400FF1F9389A9F983A70902B1CB03A58A0059
:1054940083A749026395A70689476393F408C14724
:1054A400E310F4FC17F5FF1F035585FD9147130521
:1054B40005FC3345F5029317250003A5090222864E
:1054C400CA853E959307A0052300F500A300950027
:1054D400110597B0FF1FE780605F014559B7930539
:1054E400E00417F5FF1F0355A5F997D0FF1FE780C8
:1054F400E0BC97F7FF1F23A3A7F449F995B783A747
:105504004A0303A6090297F5FF1F83D565F789812E
:10551400829783A78A0017F7FF1F2323F7F2ADBFF3
:105524008D47639EF400C147E31CF4F217F5FF1F97
:10553400035505F5130545FD9377C5FFBDBF914799
:10554400639AF400E31E94F017F5FF1F035545F327
:105554002115DDB7C147E395F4F0A147E3E287F0F5
:1055640017F5FF1F0355C5F14115F9B79307F00669
:1055740063EAA706930705FE1947B3C7E70217F7BF
:10558400FF1F0357E7EF17FAFF1F130A2AE9B38730
:10559400E702BE9983270A02A9CF83274A02639AA6
:1055A400370703250A0291461308A005FD5593D732
:1055B4002600C207C183139727002A9703460700D2
:1055C400631D060783481700035627006395980652
:1055D400B306D64063CF860485078A072286CA8528
:1055E4003E95C5BD9307E007E3ECA7E6930705F9ED
:1055F40079B79305E00417F5FF1F035565E897D0C5
:10560400FF1FE780A0AB97F7FF1F23A9A7E251F57F
:1056140081BD83A74A0303260A0297F5FF1F83D59A
:1056240025E689814E85829797F7FF1F23AA37E1E4
:105634008DBFA300B700B2869DBFB385860017F661
:10564400FF1F0356E6E39105130606FCE3FAC5E0E3
:10565400130634001376C60F1106B2962300070111
:10566400A30097002311D70085BF97F7FF1F9387E7
:10567400E7DA9453BE89A1C203A50902914613082F
:10568400A005FD5593D72600C207C18313972700B1
:105694002A97034607006316060583481700035636
:1056A400270063989800B306D640E3D786F2A30098
:1056B400B700B286C1BF8357C70017F5FF1F034564
:1056C40045DC9305E0043305F5024205418197D09A
:1056D400FF1FE780A09E97F7FF1F23A1A7D649FDD0
:1056E40041B317F6FF1F0356A6D997F5FF1F83C5CD
:1056F40045D9B385C502338686001106E3E2C5D6D3
:1057040081BF01458280011106CE2EC6EF80602044
:1057140001C9B245F2400355250005616FB070061A
:10572400F240494505618280A38801982388019845
:1057340023AC019623AE019623A0019823A20198DD
:1057440023AA019623A8019697F7FF1F938707D9E9
:10575400130640382391C70271761307400B1306D2
:1057640006B82391E7002392C70211671D469306EA
:1057740000059305000A1305007D2392E700239397
:10578400C70241470546130810F82395E7002396FE
:10579400E7002399E700239AE700239BE700239C73
:1057A400E7002394E702239607032390070023933B
:1057B400B7002394B7002397D7002398D700239DDD
:1057C400A700239E0700239F070023900702239529
:1057D400C702239707021308F007239807022392AE
:1057E400E7042393E704239FE7042390E706239128
:1057F400E7062392E706239907031307C01C239A9D
:10580400C702239BC702239C0702239D0702239EF2
:105814000702239F0702239007042391C7042394BC
:105824000704239507042396C7042397D7042398D2
:10583400D7042399A704239A0704239B0704239CD2
:105844000704239DD704239ED7042393A7062394F8
:10585400070623950706239607062397B70623987A
:10586400B70623990706239AE7067D57239B070665
:10587400239CE7068280011126CAAA84214522CCF2
:1058840006CE2E8432C636C43AC2EFE0DF941DC978
:10589400A24612473246930700FD2300F5009947BC
:1058A400A30095002301F5002303D500A303E5001D
:1058B4002312C500AA8522856244F240D2440561C0
:1058C4006FE0DF9CF2406244D2440561828023ACE5
:1058D400A196828023AEA196828023A0A198828083
:1058E40023A2A1988280011122CC4AC806CE26CADE
:1058F4002A890144B30489006368B400F240624415
:10590400D2444249056182802EC6EFE07FB19317ED
:105914000501C183A183B2452380F40093071400D9
:1059240093F7F70F850463F9B700CA970904238036
:10593400A7001374F40F7DBF3E847DBFC16717F5C4
:10594400FF1F035505B8FD176304F502411117F64F
:10595400FF1F034626C99385819806C6EF70D05B66
:10596400B240FD5717F7FF1F231DF7B44101828092
:10597400828009C925151375F50F1335850E134556
:10598400150082800145828023900500C9C6797183
:1059940022D426D24ECE52CC5AC806D64AD056CAA3
:1059A4005EC63684328AAE892A8B814463F3440707
:1059B400B307940083C70700138914004209939A1C
:1059C400070193DA0A011359090163840A04CA9787
:1059D4006341FA04B307240183CB07005E85513F7A
:1059E4000DC99387FAFF2390F90063906B031305A5
:1059F40019002295B250225492540259F249624A33
:105A0400D24A424BB24B45618280D694C204C180D3
:105A140071BF0145C5B701458280411126C2AE84DC
:105A240022C497F7FF1F23A5C7AA97F7FF1F23AF29
:105A3400B7A897F7FF1F23A9A7A82A84414693056F
:105A4400F00F26854AC006C6054997B0FF1FE780B8
:105A540080156310250597F7FF1F938727A6884BAA
:105A6400C145513541469305F00F228597B0FF1F7C
:105A7400E7806013854463189502224497F7FF1F5B
:105A84009387C7A3B24092440249C847C145410124
:105A940099BD41468145268597B0FF1FE780A01038
:105AA400E31225FD4DBF41468145228597B0FF1F76
:105AB400E780600FE30395FCB2402244924402491C
:105AC40041018280411122C426C22E84AA84130675
:105AD4000002814517F5FF1F1305459E06C697B0C2
